:020000040800F2
:100000000004002041080008210C0008210C000811
:10001000210C0008210C0008210C0008210C00080C
:10002000210C0008210C0008210C00080107000821
:10003000210C0008210C0008210C0008D107000841
:10004000210C0008210C0008210C0008210C0008DC
:10005000210C0008210C0008210C0008210C0008CC
:10006000210C000851160008210C0008010A0008A4
:10007000310A0008610A0008910A0008C10A000854
:10008000F10A0008210B0008210C0008210C0008CF
:10009000210C0008210C0008210C0008210C00088C
:1000A000210C0008210C0008210C0008210C00087C
:1000B000210C0008210C0008210C0008210C00086C
:1000C000210C0008210C0008210C0008210C00085C
:1000D000210C0008210C0008210C0008210C00084C
:1000E000210C0008210C0008210C0008210C00083C
:0400F000210C0008D7
:0400F40001010008FE
:10010000074B0022C3F8F025C3F8F42503F5C862B5
:10011000C3F8C82603F28462C3F8CC26704700BF38
:100120007408002000000000000000000000000033
:1001300038B5022000F03CFE464800F079FD454805
:1001400000F01EFE434800F08BFD00F0D9FB00F0EC
:100150008FF9414A414CD3694FF4E13143F0020336
:10016000D36123683E4823F00C032360236843F0E7
:1001700004032360A38823F002031B041B0CA38049
:10018000A3889BB2A380E36823F00C03E360E368D9
:10019000E360A36823F00C03A360A36843F00C039F
:1001A000A360D36943F00203D361236823F0030300
:1001B0002360236843F001032360A38823F0010335
:1001C0001B041B0CA380A3889BB2A380E36823F0CD
:1001D0000303E360E368E360A36823F00303A36021
:1001E000A36843F00303A36000F022FE1D4801F062
:1001F000DFF81C48002100F0E3FF1A4D2B78284659
:100200002BB1362100F0BCFF00232B76F5E733211C
:1002100000F0B6FF144B1B8A5B06FBD411481E216D
:10022000124A00F0DDFF50B902254FF4FA60258331
:1002300000F0CEF965834FF4FA6000F0C9F90C4A7A
:100240000123117811B12383002300E0638313702D
:10025000D3E700BF680800200038024000040240D5
:1002600074080020440F002000000240610F0020AD
:10027000600F0020000000000000000000000000EF
:10028000034B00225B601B609A605B611B617047DF
:10029000640F0020000000000000000000000000CB
:1002A00010B5037F04460BB10E2B02D1084800F0B5
:1002B000C7FE00232377A168064B1B689A688A4211
:1002C000FBD25A682360626020465C60146010BDF7
:1002D00060170008640F002000000000000000000C
:1002E00008B5202383F31188037F83B1032B08D142
:1002F000036A9A6801329A6090E80C001A600268FA
:1003000053604FF0FF330362FFF7CAFF002383F30C
:10031000118808BD0000000000000000000000007F
:10032000064B14229969087718688A770268536027
:100330001A6098610123037700F05ABA640F002015
:1003400030B54B1C87B005460A4C0DD0A36901A8F7
:10035000094A00F085F92846FFF7E2FF049B2BB11C
:1003600001A800F0A5F901E0FFF7DAFFA369186A18
:1003700007B030BD640F0020E1020008000000005B
:1003800038B50C4D0162AB6981689A6804469142A8
:1003900003D8BDE83840FFF783BF1846FFF780FF5A
:1003A00001230146AC6123772046BDE8384000F0C8
:1003B0001FBA00BF640F0020000000000000000012
:1003C00038B50A4C2368A5691A682846546022602B
:1003D0000122A3611A771423AB77FFF761FFA069AD
:1003E0002946BDE8384000F003BA00BF640F002082
:1003F0000C4B10B51868996902688C6853601A60D4
:1004000001220277002298610A771B689A68A2424B
:10041000FBD85A680B604A60BDE810405960116013
:1004200000F0E6B9640F00200000000000000000AA
:10043000034B9B699B7F0BB9FFF7C2BFFFF7D8BF88
:10044000640F002000000000000000000000000019
:10045000024B034A9B699A61FEE700BF640F0020CC
:1004600080170008000000000000000000000000ED
:1004700007B500F055F9FFF703FF00F0E1F8402160
:100480000C4800F04DF80C4B9861012303770023D2
:1004900083F3118862B6084B084A9B69A0219A61D0
:1004A000002300930122064B064800F079F803B0C0
:1004B0005DF804FB00080020640F002040170008CE
:1004C00051040008800F0020000000000000000020
:1004D00038B5114B9B699A7F0AB1013A9A770F4B55
:1004E000DA681C460132DA601A689A4213D09168C1
:1004F0000139916022680949936863B91068D56829
:100500000860D360416083F311881069A8472023F5
:1005100083F31188EEE738BD640F0020201000201F
:10052000022202770022427742628261044A81609D
:1005300014218177516902614161506108617047FE
:10054000640F002000000000000000000000000018
:100550002DE9F041DDF818800D4616461F46044689
:1005600020B18F2902D97F2A00D813B9084800F09A
:1005700067FD243D074B6019E06031466751C0F8C4
:10058000048003622046BDE8F041FFF7C9BF00BF09
:10059000901700080108000800000000000000009B
:1005A00037B51D46202383F31188069C2B46009403
:1005B000FFF7CEFF00210446FFF7E2FE002383F39E
:1005C0001188204603B030BD00000000000000008C
:1005D00010B5044610B9074800F032FD202383F31C
:1005E000118806202146FFF7ABFE002383F3118814
:1005F00010BD00BFC8170008000000000000000088
:1006000008B5094B9B695A7F1862920704D15A6951
:10061000196911611B695A610E20FFF781FEBDE85F
:100620000840024800F00CBD640F0020D7170008F6
:10063000202383F31188FFF7E3BF000000000000D0
:10064000044B4FF0FF329A6000225B601B60DA605F
:10065000704700BF201000200000000000000000D4
:10066000F8B50D4616461F46044608B102B111B949
:100670000C4800F0E5FC0C4A27611368E66011465F
:100680009A68AA4202D2AD1A1B68F9E75A688B42EF
:10069000236062605C601460A56002D09A68551B9C
:1006A0009D60F8BDF0170008201000200000000039
:1006B00010B5044610B90B4800F0C2FCE36813B94A
:1006C000094800F0BDFC2368084A934203D09968AA
:1006D000A2680A449A606268136023685A60002323
:1006E000E36010BDFD1700080C1800082010002062
:1006F000FFF79EFE00DF0000000000000000000089
:10070000EFF30983203383F30988002383F31188EF
:100710007047000000000000000000000000000022
:1007200008B50A4B00229A60094A0720DA601021B6
:1007300000F04EF90A204FF4007100F049F9BDE8CD
:1007400008400B20802100F043B900BF00ED00E01D
:100750000003FA0500000000000000000000000097
:10076000202383F31188144B5B6813F4006320D0BB
:10077000EFF30983A3F1200282F309884FF080721E
:1007800043F8042C0D4A91691268887F9268896841
:1007900020B18A4294BF0022012203E08A4234BF82
:1007A000002201220AB1064A00E0064A43F8082C5A
:1007B000704783F31188704700ED00E0640F00205C
:1007C000F1060008F4060008000000000000000028
:1007D00008B5202383F31188FFF77AFE002383F303
:1007E0001188BDE80840FFF7BBBF00000000000013
:1007F0002DE9F04FC1F80CD0D0F80CD0BDE8F08F47
:10080000002383F311882846A047FFF711FF7047A4
:100810007047000000000000000000000000000021
:100820007047000000000000000000000000000011
:10083000FEE70000000000000000000000000000D3
:1008400072B6224B83F30988022383F31488BFF323
:100850006F8F1F4B1D4A1F498B4204D24FF05531F9
:1008600043F8041BF7E71C4B934204D24FF0553179
:1008700043F8041BF8E7FFF7CBFF0023174A18499A
:100880009818884204D21749595899500433F5E70B
:10089000154B164A934203D2002243F8042BF8E783
:1008A000FFF7BEFF124C134B9C4203D254F8043B9B
:1008B0009847F8E7FFF73CFC0F4C104B9C4203D2E3
:1008C00054F8043B9847F8E7FFF7B2FF0008002010
:1008D0000000002000040020000400200008002088
:1008E0000008002020190008000800203010002017
:1008F000F4000008F8000008F8000008F8000008FC
:1009000000F006B800000000000000000000000039
:10091000154B1A6962F400421A6100221A61996942
:1009200061F0805199619A6159694FF0FF315961C5
:100930005A61196A41F001011962D96A41F0010155
:10094000D9620A4908684FF47A71B0FBF1F008499E
:10095000013848608A6007220A605A6A42F0805271
:100960005A6200F0F5B800BF003802406808002065
:1009700010E000E0000000000000000000000000A7
:1009800000F0030230B5D200FF249440914020F0E3
:10099000030303F1604303F56143D3F800530122DD
:1009A00025EA04040C43C3F8004300F01F0302FAD5
:1009B00003F34009800000F1604000F56140C0F899
:1009C0008031036030BD0000000000000000000026
:1009D00020F0030300F00300C000FF2282408140AA
:1009E00003F1604310B503F56D439C6924EA0202EC
:1009F0000A439A6110BD00000000000000000000E2
:100A000008B5074B0F2219685A60064A01F00F011A
:100A100013680BB150689847BDE80840FFF7A0BEC7
:100A200000600240280800200000000000000000D4
:100A300008B5074BF02219685A60064AC1F3031142
:100A400093680BB1D0689847BDE80840FFF788BEAF
:100A500000600240280800200000000000000000A4
:100A600008B5084B4FF4706219685A60064AC1F322
:100A7000032113690BB150699847BDE80840FFF79F
:100A80006FBE00BF00600240280800200000000088
:100A900008B5084B4FF4704219685A60064AC1F312
:100AA000033193690BB1D0699847BDE80840FFF75F
:100AB00057BE00BF00600240280800200000000070
:100AC00008B5084B4FF4702219685A60064AC1F302
:100AD0000341136A0BB1506A9847BDE80840FFF71D
:100AE0003FBE00BF00600240280800200000000058
:100AF00008B5084B4FF4700219685A60064AC1F3F2
:100B00000351936A0BB1D06A9847BDE80840FFF7DC
:100B100027BE00BF0060024028080020000000003F
:100B200008B5084B4FF0706219685A60064AC1F365
:100B30000361136B0BB1506B9847BDE80840FFF79A
:100B40000FBE00BF00600240280800200000000027
:100B5000094A002313600C215943084A895800228E
:100B60000A60074941F833200133072BF3D1054BC5
:100B70004FF0FF325A60704760080020701800087C
:100B80002808002000600240000000000000000073
:100B90002DE9F0410F4615469846044610B91A480B
:100BA00000F04EFA627A012000FA02FC174E31681A
:100BB0001CEA010F26D116484CEA010340F83250D6
:100BC000336000EBC2025B06C2F8048004D0114B14
:100BD000DA6942F08072DA6123680F201A68002611
:100BE00022F00F021A60217A626800FA01F11160A6
:100BF0001E6035B1A07A3901FFF7C2FE3046BDE86C
:100C0000F0812846BDE8F081201800086008002027
:100C1000280800200038024000000000000000000A
:100C2000FEE70000000000000000000000000000DF
:100C3000084B1A6842F001021A604FF4A063054A9B
:100C40001268920703D4013BF9D1012070470020BC
:100C5000704700BF003802400000000000000000A4
:100C6000F0B593B00021202205460AA800F000FD4F
:100C70004FF480330A934FF400330B934FF48023E7
:100C80000C93344B344A0D93344B51680E93344BD0
:100C900010680F93334B06AE109303AB03C3117A66
:100CA000197002F109031932174618685968344659
:100CB00003C4083393422646F7D13868796801ABFC
:100CC00003C3294B9A68C2F38102022A24D0032A63
:100CD0000CD0012A01D1254B1FE05B6812A8C3F399
:100CE000423300EB830353F8203C16E09A6812A9C4
:100CF000C2F383420A4412F83C1C9A689B681C4861
:100D000013F4803F194BC2F3815218BF03464B4383
:100D10000132B3FBF2F300E0154B134A12A89168BD
:100D2000C1F30311014411F8301CCB402B609168D2
:100D3000C1F30221014411F8441C23FA01F1696056
:100D40009268C2F3C222024412F8442CD340AB6032
:100D500013B0F0BD9CFF070010170008C0FD0F0086
:100D600068FF1F00D0FE3F00003802400024F4005E
:100D700000127A00000000000000000000000000E7
:100D800008B5FFF755FF60B9074B9A6822F00302D8
:100D900042F001029A609A6802F00C02042AFAD129
:100DA00008BD012008BD00BF00380240000000005F
:100DB000094B4FF080525A62084B5A68D106FBD457
:100DC0001A6822F4C05242EAC0221A605A68D20657
:100DD000FCD4034B1870704700380240007000408C
:100DE0006408002000000000000000000000000077
:100DF000D0F8DC1500F2DC52D0F8E835521A9A42ED
:100E000028BF1A46C0F8EC2562B1002380F8E4350B
:100E1000054B5B6AD9605A6092221A601A6842F0E8
:100E200001021A60704700BF70180008000000003F
:100E30002DE9F84F544F4FF000080646C6F8E0057C
:100E4000C6F8DC050123C0F8E88580F8E435FB69C5
:100E50004E4C43F00103FB6123684D4D23F44023C6
:100E600023602368DFF834B143F400232360A088B3
:100E7000484A20F400700004000CA080A388D946E2
:100E80009BB2A380E368584623F44023E360E36801
:100E9000DFF80CA1E360A36806F5BF6623F44023E6
:100EA000A360A36843F40023A360636A23F0F00304
:100EB0006362636A43F0700363623B6A43F4804396
:100EC0003B624FF40053AB81334B9B68B3FBF1F1B2
:100ED0008BB22B8107214346A5F81080FFF758FEFF
:100EE00059F824399222C3F808A01A600C23AB8168
:100EF000C023AB82FB69424643F00103FB612368D8
:100F00000BF10C0023F440132360236843F4001317
:100F10002360A18821F480610904090CA180A388C1
:100F20000F219BB243F48063A380E36823F4401352
:100F3000E360E36843F48013E360A36823F44013A1
:100F4000A360A36843F40013A360636A23F470638F
:100F50006362636A43F4E06363624346FFF718FE2B
:100F6000D9F830304822C3F808A0DE605A60A022C9
:100F70001A601A6842F001021A60AB899BB243F40E
:100F80000053AB81BDE8F88F0038024000000240FA
:100F9000003801401110000868080020941800086B
:100FA00004380140000000000000000000000000C4
:100FB000134A10B5516A0C6824F00F040C60916A52
:100FC00092F82C200F2404FA02F20A60D0F8DC45D3
:100FD000D0F8EC15D0F8E825521A214400F2DC5480
:100FE000A14228BF0146C0F8E825C0F8DC151AB9AF
:100FF000012280F8E42510BDBDE81040FFF7F8BEDF
:101000007018000800000000000000000000000050
:101010000148FFF7CDBF00BF7408002000000000AA
:10102000013810F8013F2BB1034A11880906FBD59E
:101030009380F6E7704700BF0038014000000000D1
:1010400008B5FFF7EDFF0648FFF7EAFF054B9B6980
:101050009869FFF7E5FFBDE808400348FFF7E0BFE8
:10106000D0180008640F0020D3180008000000000A
:10107000024B1B8A5B06FBD4704700BF0000024096
:10108000036899811A89D207FCD59889C0B2704744
:101090007F29C4BFA1F5807189B208B2022390FBF9
:1010A000F3F04A3840B27047000000000000000032
:1010B000F8B5094C064610250F4608366583FFF73C
:1010C000D7FF47F080013046FFF7DAFF30460021B6
:1010D000FFF7D6FF2583F8BD0000024000000000A6
:1010E0002DE9F8430D4678210646FFF7E1FF030698
:1010F00024D5144F4FF0100806F10804A7F81A8001
:10110000FFF7B6FF2046FF21FFF7BAFF2046002178
:10111000FFF7B6FF002128702046FFF7B1FF00213E
:1011200081462046FFF7ACFFA7F8188030464946B5
:10113000FFF7AEFF68700020BDE8F8830120BDE82E
:10114000F88300BF00000240000000000000000023
:101150002DE9F041094C064610258846083665837E
:101160001746FFF785FF41463046FFF789FF3046B7
:101170003946FFF785FF2583BDE8F0810000024076
:10118000F8B5094D102604460F466E83FFF770FF31
:1011900004F108003946FFF773FF20702E8323788F
:1011A00003F070032370F8BD00000240000000004F
:1011B00010B536210446FFF7E3FF0023237610BD68
:1011C00038B504460D462378204613B1FFF7F0FFEB
:1011D000F9E72A460A21BDE83840FFF7B9BF000009
:1011E00070B50D463A2104461646FFF7C9FF202385
:1011F00083F31188104B3421986960602046FFF713
:10120000BFFF4FF47A735D43A5F57A75B5FBF3F133
:1012100001310220FFF794F8002383F31188013095
:10122000204604D03146BDE87040FFF759BFFFF7B4
:10123000BFFF022070BD00BF640F0020000000004F
:1012400010B50B2104460C22FFF782FF20460C212B
:101250000022FFF77DFF20460D212022FFF778FFB7
:1012600020460E212522FFF773FF20460F21ED2295
:10127000FFF76EFF204610212D22FFF769FF204661
:1012800011212F22FFF764FF204612211322FFF7BE
:101290005FFF204613212222FFF75AFF2046142128
:1012A000E522FFF755FF20460A210022FFF750FFF5
:1012B000204615216222FFF74BFF20462121B6224E
:1012C000FFF746FF204622211022FFF741FF20466C
:1012D00018210822FFF73CFF204619211D22FFF7A5
:1012E00037FF20461A211C22FFF732FF20461B2120
:1012F000C722FFF72DFF20461C210022FFF728FF01
:1013000020461D21B022FFF723FF20462321EA2299
:10131000FFF71EFF204624212A22FFF719FF20464F
:1013200025210022FFF714FF204626211F22FFF768
:101330000FFF20462C218822FFF70AFF20462D218F
:101340003122FFF705FF20462E210922FFF700FF7B
:10135000204603210722FFF7FBFE2046002107223B
:10136000FFF7F6FE204602210622FFF7F1FE204697
:1013700007210C22FFF7ECFE204608214422FFF74C
:10138000E7FE204606210122FFF7E2FE20463E212D
:101390005022FFF7DDFE204616210722FFF7D8FE78
:1013A000204617210022BDE81040FFF7D1BE000003
:1013B000F8B58D4D8D4CEB69002743F00103EB61CF
:1013C0002368064623F4407323602368302143F4E6
:1013D00080732360A38823F010031B041B0CA380DD
:1013E000A3889BB2A380E36823F44073E360E368BF
:1013F000E360A36823F44073A360A36843F44073DD
:10140000A360EB6943F00103EB61236823F44063BD
:101410002360236843F400632360A38823F0200340
:101420001B041B0CA380A3889BB2A380E36823F456
:101430004063E360E368E360A36823F44063A36070
:10144000A36843F40063A360236A23F47003236258
:10145000236A43F4A0032362EB6943F00103EB61C9
:10146000236823F440532360236843F4005323602C
:10147000A38823F040031B041B0CA380A3889BB20A
:10148000A380E36823F44053E360E368E360A36868
:1014900023F44053A360A36843F40053A360236A7A
:1014A00023F070632362236A43F0A0632362EB6935
:1014B00043F00103EB61236823F440432360236876
:1014C00043F400432360A38823F080031B041B0C18
:1014D000A380A3889BB2A380E36823F44043E36026
:1014E000E368E360A36823F44043A360A36843F484
:1014F0000043A360236A23F070432362236A43F00E
:10150000A0432362EB6943F00103EB61236823F0FE
:10151000C0032360E36823F0C003E360E368E36093
:10152000EB6943F00103EB61236823F03003236090
:10153000E36823F03003E360E368E3601023238370
:101540002B4B83602A6A42F480522A624FF4417224
:101550001A801A8892B21A809F809A8B22F40062B5
:101560001204120C9A831A8892B242F040021A8036
:10157000FFF706FE30463A21FFF702FE3046FFF73E
:101580005FFE032333752B6A776043F001033776E0
:1015900034612B62174B01219A68092022F47042B2
:1015A0009A60D3F8002442F00802C3F80024D3F86C
:1015B000042422F00802C3F80424327D01FA02F266
:1015C000D3F8081421EA0201C3F80814D3F80C1464
:1015D0000A43C3F80C240822C3F814249021F060B5
:1015E000BDE8F840FFF7CCB90038024000000240E7
:1015F0000030014000000140000000000000000039
:10160000037E023BDBB2012B9CBF002303767047B5
:1016100010B5037D01229A400C4B04465A612023E9
:1016200083F31188436853B11A7F022A04D1002240
:101630001A624068FEF734FE0023636001E0FFF7A2
:10164000DFFF002383F3118810BD00BF00040140B9
:1016500008B50348FFF7DCFFBDE80840FFF780B896
:10166000440F002000000000000000000000000007
:10167000F0B4840743D0541E002A3ED0CDB20346B6
:1016800003E0621E002C38D0144603F8015B9A0771
:10169000F7D1032C2AD9CDB245EA05250F2C45EA0E
:1016A000054515D9A4F110073F0903F1100606EB13
:1016B00007161A46156055609560D5601032B24223
:1016C000F8D104F00F040137032C03EB07130DD9F5
:1016D0001E462246043A032A46F8045BFAD8221F23
:1016E00022F003020432134404F003042CB1C9B203
:1016F0001C4403F8011BA342FBD1F0BC7047144605
:101700000346C6E7000000000000000000000000E3
:10171000030406080C101820300000000000000030
:10172000000102030406070809000000000102038B
:1017300004000000000000000000000000000000A5
:101740006D61696E00168011040428080C101418CD
:10175000001C1D001E000000000000000000000032
:10176000636853636852656164794928292C202392
:101770003100000000000000000000000000000038
:1017800069646C65000000000000000000000000BB
:10179000226368546864437265617465492228292C
:1017A000002263685468645365745072696F72698B
:1017B0007479222829006368546864526573756DD2
:1017C0006528292C20233100226368546864536CF7
:1017D00065657022282900636854686445786974D7
:1017E0005328292C202331000000000000000000B5
:1017F000226368565453657449222829002263687D
:1018000056545265736574492228290063685654FA
:1018100052657365744928292C202331000000008B
:1018200022646D6153747265616D416C6C6F6361AC
:1018300074652228290022646D6153747265616D9C
:1018400052656C6561736522282900646D6153746B
:101850007265616D52656C6561736528292C202362
:101860003100000000000000000000000000000047
:10187000086002400460024000000B001C6002404F
:101880000460024004010C00306002400460024029
:1018900008020D0044600240046002400C030E0088
:1018A000586002400460024010040F006C60024067
:1018B0000460024014051000806002400460024091
:1018C00018061100000000000000000000000000E9
:1018D0002040000D000D202020202030202031202D
:1018E0002032202033202034202035202036202094
:1018F000372020382020392020412020422020433A
:10190000202044202045202046000D253032583A22
:101910002000202020002530325820002D2D2000CE
:0400000508000841A6
:00000001FF
