:020000040800F2
:1000000000040020110A0008910800089108000867
:10001000910800089108000891080008910800085C
:10002000910800089108000891080008B10800082C
:10003000910800089108000891080008810900084B
:10004000910800089108000891080008910800082C
:10005000910800089108000891080008910800081C
:1000600091080008F10700089108000841130008F2
:1000700071130008A1130008E113000821140008FF
:1000800061140008A11400089108000891080008F4
:1000900091080008910800089108000891080008DC
:1000A00091080008910800089108000891080008CC
:1000B00091080008910800089108000891080008BC
:1000C00091080008910800089108000891080008AC
:1000D000910800089108000891080008910800089C
:1000E000910800089108000891080008910800088C
:0400F000910800086B
:1001000008B5012001F0E4FA134801F051FA01F0BA
:10011000D7F800F03DFF11484FF4E13101F050FBFA
:100120000F490E4801F00CFB0E4800F031F80E4864
:10013000002100F085F8202383F3118800F0D8FC1B
:100140004FF0FF31062000F053FE00F0E9FC0023E1
:1001500083F31188EFE700BFD00B0020DC0B0020F9
:10016000001C0008980900209C09002000000000E5
:1001700008B5044B044A9B699A61122000F0F0FF15
:10018000FBE700BFFC110020F01B0008000000008E
:1001900013B50023044600934FF4CC714022034B67
:1001A000034800F0ADFF206002B010BD71010008EF
:1001B0000008002000000000000000000000000017
:1001C00010B5104C237820462BB1362100F0C0F832
:1001D00000232376F5E7332100F0BAF80A4B1B8A97
:1001E0005B06FBD4074800F0E3F8064800F088F807
:1001F00006490246064801F0A3FA2D2000F0B0FFA0
:10020000F3E700BF400B002000000240101C000874
:10021000DC0B0020000000000000000000000000D7
:1002200008B5034B034A9B6903489A61FFF7C8FF6F
:10023000FC110020181C00089C0900200000000090
:1002400037B50D4C0546204600F07AF9204650227D
:100250003E2100F065F82046002100F099F80023C7
:1002600000934FF4CC717F22044B054800F048FF07
:10027000686003B030BD00BF400B002021020008C1
:10028000A80900200000000000000000000000009D
:10029000024B1B8A5B06FBD4704700BF0000024084
:1002A000036899811A89D207FCD59889C0B2704732
:1002B0007F29C4BFA1F5807189B208B2022390FBE7
:1002C000F3F04A3840B27047000000000000000020
:1002D000F8B5094C064610250F4608366583FFF72A
:1002E000D7FF47F080013046FFF7DAFF30460021A4
:1002F000FFF7D6FF2583F8BD000002400000000094
:1003000010B574210446FFF7E3FF01462046BDE81F
:100310001040FFF7CDBF000000000000000000000B
:100320002DE9F041094C06461025884608366583BC
:100330001746FFF7ADFF41463046FFF7B1FF3046A5
:100340003946FFF7ADFF2583BDE8F081000002408C
:10035000F8B5094D102604460F466E83FFF798FF47
:1003600004F108003946FFF79BFF20702E832378A5
:1003700003F070032370F8BD00000240000000008D
:1003800010B536210446FFF7E3FF0023237610BDA6
:1003900038B504460D462378204613B1FFF7F0FF29
:1003A000F9E72A460A21BDE83840FFF7B9BF000047
:1003B00010B50223044603763A21FFF7C9FF204611
:1003C0003421BDE81040FFF7C3BF0000000000006B
:1003D00010B50B2104460C22FFF7A2FF20460C218A
:1003E0000022FFF79DFF20460D212022FFF798FFF6
:1003F00020460E212522FFF793FF20460F21ED22F4
:10040000FFF78EFF204610212D22FFF789FF20469F
:1004100011212F22FFF784FF204612210022FFF72F
:100420007FFF204613212222FFF77AFF2046142166
:10043000E522FFF775FF20460A210022FFF770FF33
:10044000204615216222FFF76BFF20462121B622AC
:10045000FFF766FF204622211022FFF761FF2046AA
:1004600018210822FFF75CFF204619211D22FFF703
:1004700057FF20461A211C22FFF752FF20461B215E
:10048000C722FFF74DFF20461C210022FFF748FF3F
:1004900020461D21B022FFF743FF20462321EA22F8
:1004A000FFF73EFF204624212A22FFF739FF20468E
:1004B00025210022FFF734FF204626211F22FFF7C7
:1004C0002FFF20462C218822FFF72AFF20462D21CE
:1004D0003122FFF725FF20462E210922FFF720FFBA
:1004E000204603210722FFF71BFF204600210C2294
:1004F000FFF716FF204602210B22FFF711FF2046CF
:1005000007210C22FFF70CFF204608211222FFF7DB
:1005100007FF204606210122FFF702FF20463E2169
:100520005022FFF7FDFE204616210722FFF7F8FEB6
:10053000204617210022BDE81040FFF7F1BE000061
:10054000F8B58D4D8D4CEB69002743F00103EB614D
:100550002368064623F4407323602368302143F464
:1005600080732360A38823F010031B041B0CA3805B
:10057000A3889BB2A380E36823F44073E360E3683D
:10058000E360A36823F44073A360A36843F440735B
:10059000A360EB6943F00103EB61236823F440633C
:1005A0002360236843F400632360A38823F02003BF
:1005B0001B041B0CA380A3889BB2A380E36823F4D5
:1005C0004063E360E368E360A36823F44063A360EF
:1005D000A36843F40063A360236A23F470032362D7
:1005E000236A43F4A0032362EB6943F00103EB6148
:1005F000236823F440532360236843F400532360AB
:10060000A38823F040031B041B0CA380A3889BB288
:10061000A380E36823F44053E360E368E360A368E6
:1006200023F44053A360A36843F40053A360236AF8
:1006300023F070632362236A43F0A0632362EB69B3
:1006400043F00103EB61236823F4404323602368F4
:1006500043F400432360A38823F080031B041B0C96
:10066000A380A3889BB2A380E36823F44043E360A4
:10067000E368E360A36823F44043A360A36843F402
:100680000043A360236A23F070432362236A43F08C
:10069000A0432362EB6943F00103EB61236823F07D
:1006A000C0032360E36823F0C003E360E368E36012
:1006B000EB6943F00103EB61236823F0300323600F
:1006C000E36823F03003E360E368E36010232383EF
:1006D0002B4B83602A6A42F480522A624FF44172A3
:1006E0001A801A8892B21A809F809A8B22F4006234
:1006F0001204120C9A831A8892B242F040021A80B5
:10070000FFF726FE30463A21FFF722FE3046FFF77C
:100710005FFE032333752B6A776043F0010337765E
:1007200034612B62174B01219A68092022F4704230
:100730009A60D3F8002442F00802C3F80024D3F8EA
:10074000042422F00802C3F80424327D01FA02F2E4
:10075000D3F8081421EA0201C3F80814D3F80C14E2
:100760000A43C3F80C240822C3F814249021F06033
:10077000BDE8F84000F04CB80038024000000240EC
:1007800000300140000001400000000000000000B7
:10079000037E023BDBB2012B9CBF00230376704734
:1007A00010B5037D01229A400F4B04465A61202365
:1007B00083F3118800F0CCF963685BB193F82020D3
:1007C000022A04D100229A62606800F0A1FA002394
:1007D000636002E02046FFF7DBFF00F0D1F9002361
:1007E00083F3118810BD00BF000401400000000029
:1007F00008B500F0DDF90448FFF7D2FF00F0F8F982
:10080000BDE8084000F084B8400B00200000000064
:1008100000F0030230B5D200FF249440914020F054
:10082000030303F1604303F56143D3F8005301224E
:1008300025EA04040C43C3F8004300F01F0302FA46
:1008400003F34009800000F1604000F56140C0F80A
:100850008031036030BD0000000000000000000097
:1008600020F0030300F00300C000FF22824081401B
:1008700003F1604310B503F56D439C6924EA02025D
:100880000A439A6110BD0000000000000000000053
:10089000FEE7000000000000000000000000000073
:1008A00000F026F900F054FB00F03AF900DF0000F8
:1008B000EFF30983203383F30988002383F311883E
:1008C0007047000000000000000000000000000071
:1008D00008B50A4B00229A60094A0720DA60102105
:1008E000FFF7BEFF0A204FF40071FFF7B9FFBDE824
:1008F00008400B208021FFF7B3BF00BF00ED00E0F0
:100900000003FA05000000000000000000000000E5
:10091000202383F31188154B5B6813F4006321D007
:10092000EFF30983A3F1200282F309884FF080726C
:1009300043F8042C0E4A9169126891F822009268DB
:10094000896820B18A4294BF0022012203E08A42D2
:1009500034BF002201220AB1064A00E0064A43F8E9
:10096000082C704783F31188704700BF00ED00E04A
:10097000FC110020A1080008AC08000800000000DD
:1009800008B500F015F9202383F3118800F0E0F892
:1009900000F036FB00F0F4F8002383F3118800F038
:1009A00027F9BDE80840FFF7B3BF000000000000D2
:1009B0002DE9F04FC1F80CD0D0F80CD0BDE8F08F85
:1009C00008B500F0ADF8002383F311882846A0474E
:1009D00000F006FC08BD0000000000000000000060
:1009E0007047000000000000000000000000000050
:1009F0007047000000000000000000000000000040
:100A0000FEE7000000000000000000000000000001
:100A100072B6224B83F30988022383F31488BFF351
:100A20006F8F1F4B1D4A1F498B4204D24FF0553127
:100A300043F8041BF7E71C4B934204D24FF05531A7
:100A400043F8041BF8E7FFF7CBFF0023174A1849C8
:100A50009818884204D21749595899500433F5E739
:100A6000154B164A934203D2002243F8042BF8E7B1
:100A7000FFF7BEFF124C134B9C4203D254F8043BC9
:100A80009847F8E7FFF73CFB0F4C104B9C4203D212
:100A900054F8043B9847F8E7FFF7B2FF000800203E
:100AA00000000020000400200004002000080020B6
:100AB00000080020181E000800080020D0120020A6
:100AC000F4000008F4000008F4000008F400000836
:100AD000044B1B6813B9044B1B6813B1034800F0A7
:100AE0001FBF7047F4110020F81100202A1C0008D5
:100AF000064B10B51B68064C0BB9236813B10548AB
:100B000000F00EFF0123236010BD00BFF411002090
:100B1000F81100202F1C0008000000000000000059
:100B2000064B10B51B68064C13B92368002B02DC7A
:100B3000044800F0F5FE0023236010BDF4110020EE
:100B4000F8110020341C0008000000000000000024
:100B5000064B10B51B68064C002B01DD236813B152
:100B6000044800F0DDFE0123236010BDF4110020D5
:100B7000F8110020391C00080000000000000000EF
:100B8000074B10B51B68074C002B02DD2368002BB8
:100B900002DC054800F0C4FE0023236010BD00BF46
:100BA000F4110020F81100203E1C00080000000095
:100BB00010B5202383F31188084C2368002B02DB37
:100BC000074B1B6813B1074800F0AAFE23680133E6
:100BD0002360002383F3118810BD00BFF4110020AF
:100BE000F8110020431C0008000000000000000075
:100BF00010B5202383F31188084C2368002B02DDF5
:100C0000074B1B6813B1074800F08AFE2368013BBD
:100C10002360002383F3118810BD00BFF41100206E
:100C2000F8110020481C000800000000000000002F
:100C3000054B1B68002B03DB044B1B68002B02DCFD
:100C4000034800F06DBE7047F4110020F811002039
:100C50004D1C000800000000000000000000000023
:100C6000054B1B681BB9054B1B68002B02DC0448B5
:100C700000F056BE704700BFF4110020F8110020AC
:100C8000531C0008000000000000000000000000ED
:100C9000034A4021134643F8081B5360704700BFC6
:100CA000E80D00200000000000000000000000002F
:100CB0000C4B0D495A68C968103242F8101C0B4998
:100CC000896942F80C1C816A42F8081C90F82010CF
:100CD00002F8041C03F581618A4228BF03F108026F
:100CE0005A607047E80D0020C0120020FC1100205F
:100CF000034B00225B601B609A605B611B61704765
:100D0000FC110020000000000000000000000000B6
:100D100010B50446FFF78CFF94F820300BB10E2B72
:100D200002D1094800F0FCFD002384F82030A168BE
:100D3000064B1B689A688A42FBD25A68236062603D
:100D400020465C60146010BD801C0008FC1100206F
:100D500038B50446202383F31188FFF7F9FE94F891
:100D600020505DB1032D0DD1A36A9A6801329A60BB
:100D700094E80C001A602268536003E0FFF700FF5C
:100D80002B4608E04FF0FF33A3622046FFF7C0FF79
:100D9000FFF7F6FE002383F3118838BD0000000042
:100DA00070B5114C0646FFF75BFFA569142385F863
:100DB0002230236885F820601A6828465460226033
:100DC000012283F82020A361FFF772FFEB69ADF1E8
:100DD0002402934202D9054800F0A2FDA0692946E9
:100DE000BDE87040FFF7E4BDFC110020921C000834
:100DF00070B50E4686B00546FFF732FF731C0C4CEB
:100E00000ED0A36901A831460A4A00F009FA284623
:100E1000FFF7C6FF049B33B101A800F029FA02E0F6
:100E20002846FFF7BDFFA369986A06B070BD00BFF2
:100E3000FC110020510D000800000000000000001F
:100E400070B5134E04460D46FFF70AFFB069A2685D
:100E50008368A5629A4204D82046BDE87040FFF737
:100E600057BFFFF755FF0123054684F82030B461D2
:100E7000FFF71EFFEB69ADF12402934202D905484A
:100E800000F04EFD20462946BDE87040FFF790BDBA
:100E9000FC110020921C000800000000000000006F
:100EA00038B5104C2368A5691A682846546022603A
:100EB000012283F82020A361142385F82230FFF754
:100EC00027FF2846FFF7F4FEEB69ADF124029342B9
:100ED00002D9054800F024FDA0692946BDE8384044
:100EE000FFF766BDFC110020921C00080000000006
:100EF00038B5144B1A689C6911681D464B6019601F
:100F0000012182F820109A61A168002284F8202033
:100F10001B689A688A42FBD85A6823606260204640
:100F20005C601460FFF7C4FEE369ADF124029342F4
:100F300002D9054800F0F4FCA8692146BDE8384014
:100F4000FFF736BDFC110020921C000800000000D5
:100F5000044B9B6993F822300BB9FFF7A1BFFFF751
:100F6000C7BF00BFFC11002000000000000000000F
:100F7000024B034A9B699A61FEE700BFFC11002007
:100F8000B01C00080000000000000000000000008D
:100F900007B5FFF79DFCFFF7ABFE00F031F9FFF757
:100FA00077FE40210F4800F063F80F4B9861012352
:100FB00080F820300D4BC361FFF78AFD002383F3D7
:100FC000118862B6084B0A4A9B69A8219A610023DE
:100FD00000930122074B084800F092F803B05DF837
:100FE00004FB00BF5C0B0020FC110020000400206B
:100FF000601C0008710F000818120020000000009B
:10100000F8B5FFF715FE164B9B6993F8222012B135
:10101000013A83F822205A6A01325A62114BDA6887
:101020001E460132DA601A689A4218D09168013976
:10103000916034680B4AA5688DB92168E768E5605E
:101040004A601160FFF79CFD2B4683F311882069ED
:10105000B847202383F31188FFF77AFDE9E7F8BD4D
:10106000FC110020C0120020000000000000000061
:10107000022280F82020002280F8212002634262B0
:101080008261084A8160142180F82210516902614E
:101090004161506100F12C020861C26200F134022A
:1010A000C2617047FC110020000000000000000039
:1010B0002DE9F04104460F4615461E46DDF818801E
:1010C000FFF7B6FD24B1972F02D97F2D00D816B9AE
:1010D000084800F025FC243F074BE019E060294652
:1010E000E651C0F8048003622046BDE8F041FFF7F6
:1010F000BFBF00BFC01C0008C109000800000000FD
:101100002DE9F341044600F134050E4690461F4692
:101110000020FF23235401303428FAD1A3199D4223
:1011200003D2552205F8012BF9E7202383F3118818
:10113000FFF7DEFC08993B464246009120463146C7
:10114000FFF7B6FF00210446FFF77AFEFFF7E8FC41
:10115000002383F31188204602B0BDE8F08100002F
:1011600010B5044610B9094800F0DAFB202383F3D8
:101170001188FFF7BDFC21460620FFF739FEFFF777
:10118000CFFC002383F3118810BD00BFF81C0008BA
:101190000F4B10B59C69A062234653F82C0F984260
:1011A00004D00368E362FFF7B3FDF5E794F821305C
:1011B0009B0704D1226963691A61226953610E2079
:1011C000FFF7EEFDBDE81040024800F0A9BB00BFEC
:1011D000FC110020071D00080000000000000000B6
:1011E00010B52023044683F31188FFF781FC2046C5
:1011F000BDE81040FFF7CCBF000000000000000079
:10120000044B4FF0FF329A6000225B601B60DA6093
:10121000704700BFC0120020000000000000000066
:10122000F8B504460D4616461F46FFF701FD0CB102
:1012300006B115B90C4800F073FB0C4A276113681E
:10124000E66011469A68AA4202D2AD1A1B68F9E715
:101250005A688B42236062605C601460A56002D0B3
:101260009A68551B9D60F8BD401D0008C012002003
:1012700010B50446FFF7DCFC14B90B4800F050FB36
:10128000E36813B9094800F04BFB2368084A93420E
:1012900003D09968A2680A449A6062681360236860
:1012A0005A600023E36010BD4D1D00085C1D00085E
:1012B000C01200200000000000000000000000003C
:1012C00000F006B800000000000000000000000070
:1012D000154B1A6962F400421A6100221A61996979
:1012E00061F0805199619A6159694FF0FF315961FC
:1012F0005A61196A41F001011962D96A41F001018C
:10130000D9620A4908684FF47A71B0FBF1F00849D4
:10131000013848608A6007220A605A6A42F08052A7
:101320005A6200F0DDB800BF00380240D00B002048
:1013300010E000E0000000000000000000000000DD
:1013400008B5FFF735FC084B0F2219685A60074AA9
:1013500001F00F0113680BB150689847FFF748FC84
:10136000BDE80840FFF7D4BA00600240900B0020AF
:1013700008B5FFF71DFC084BF02219685A60074AB0
:10138000C1F3031193680BB1D0689847FFF730FCA5
:10139000BDE80840FFF7BCBA00600240900B002097
:1013A00008B5FFF705FC094B4FF4706219685A60E5
:1013B000074AC1F3032113690BB150699847FFF73E
:1013C00017FCBDE80840FFF7A3BA00BF0060024069
:1013D000900B002000000000000000000000000052
:1013E00008B5FFF7E5FB094B4FF4704219685A60E6
:1013F000074AC1F3033193690BB1D0699847FFF7EE
:10140000F7FBBDE80840FFF783BA00BF0060024069
:10141000900B002000000000000000000000000011
:1014200008B5FFF7C5FB094B4FF4702219685A60E5
:10143000074AC1F30341136A0BB1506A9847FFF79B
:10144000D7FBBDE80840FFF763BA00BF0060024069
:10145000900B0020000000000000000000000000D1
:1014600008B5FFF7A5FB094B4FF4700219685A60E5
:10147000074AC1F30351936A0BB1D06A9847FFF74B
:10148000B7FBBDE80840FFF743BA00BF0060024069
:10149000900B002000000000000000000000000091
:1014A00008B5FFF785FB094B4FF0706219685A6069
:1014B000074AC1F30361136B0BB1506B9847FFF7F9
:1014C00097FBBDE80840FFF723BA00BF0060024069
:1014D000900B002000000000000000000000000051
:1014E000094A002313600C215943084A89580022F5
:1014F0000A60074941F833200133072BF3D1054B2C
:101500004FF0FF325A607047C80B0020C01D000822
:10151000900B00200060024000000000000000006E
:101520002DE9F0410F4615469846044610B91A4871
:1015300000F0F6F9627A012000FA02FC174E3168D9
:101540001CEA010F26D116484CEA010340F832503C
:10155000336000EBC2025B06C2F8048004D0114B7A
:10156000DA6942F08072DA6123680F201A68002677
:1015700022F00F021A60217A626800FA01F111600C
:101580001E6035B1A07A3901FFF742F93046BDE857
:10159000F0812846BDE8F081701D0008C80B0020CE
:1015A000900B002000380240000000000000000006
:1015B000F0B593B00021202205460AA800F0B0FA49
:1015C0004FF480330A934FF400330B934FF480238E
:1015D0000C93344B344A0D93344B51680E93344B77
:1015E00010680F93334B06AE109303AB03C3117A0D
:1015F000197002F109031932174618685968344600
:1016000003C4083393422646F7D13868796801ABA2
:1016100003C3294B9A68C2F38102022A24D0032A09
:101620000CD0012A01D1254B1FE05B6812A8C3F33F
:10163000423300EB830353F8203C16E09A6812A96A
:10164000C2F383420A4412F83C1C9A689B681C4807
:1016500013F4803F194BC2F3815218BF03464B432A
:101660000132B3FBF2F300E0154B134A12A8916864
:10167000C1F30311014411F8301CCB402B60916879
:10168000C1F30221014411F8441C23FA01F16960FD
:101690009268C2F3C222024412F8442CD340AB60D9
:1016A00013B0F0BD9CFF0700C01B0008C0FD0F0079
:1016B00068FF1F00D0FE3F00003802400024F40005
:1016C00000127A000000000000000000000000008E
:1016D000094B4FF080525A62084B5A68D106FBD42E
:1016E0001A6822F4C05242EAC0221A605A68D2062E
:1016F000FCD4034B18707047003802400070004063
:10170000CC0B0020000000000000000000000000E2
:10171000D0F8FC315A1CC0F8FC211970D0F8FC310B
:1017200000F5FC72934228BFC0F8FC01704700002E
:1017300001460148FFF7ECBFDC0B00200000000071
:101740000EB417B5D0F8FC31D0F8F81104468B422E
:1017500028BF01F5FC71C91A144806AB059A01931C
:1017600000F02EF9D4F80432184494F80032C4F88A
:101770000402B3B1002384F800320D4BD4F8F821F1
:101780005B6A04F5FC71DA608A1A904228BF104641
:101790009222C4F8080258601A601A6842F00102E6
:1017A0001A6003B0BDE8104003B07047311700085D
:1017B000C01D000800000000000000000000000044
:1017C00038B5012380F800322C4C0023C0F80432D5
:1017D000E269C0F8FC0142F00102C0F8F801E261E0
:1017E000274A284D106820F440201060106840F40B
:1017F00000201060908820F400700004000C90809D
:10180000908880B29080D06820F44020D060D0686A
:10181000D060906820F440209060906840F40020F0
:101820009060506A20F0F0005062506A40F0700002
:101830005062226A284642F480422262A4F5803433
:101840004FF40052A281104A9268B2FBF1F18AB2C1
:101850002281072123820D4AFFF762FE2B680C4A82
:101860009A6092221A600823A3818023A382A3890D
:101870009BB243F40053A38138BD00BF003802403F
:1018800000000240E41D0008D00B002011190008E0
:1018900004380140000000000000000000000000CB
:1018A000194A10B5536A0F24196821F00F01196005
:1018B000916A92F82C2004FA02F20A60D0F8F841FA
:1018C000D0F80812D0F80422521A214400F5FC7412
:1018D000A14228BF0146C0F80422C0F8F8111AB985
:1018E000012380F8003210BDD960611A914238BFDF
:1018F0000A46C0F808225A6092221A601A6842F01A
:1019000001021A6010BD00BFC01D000800000000E9
:101910000148FFF7C5BF00BFDC0B0020000000003E
:10192000013810F8013F2BB1034A11880906FBD595
:101930009380F6E7704700BF0038014000000000C8
:10194000F0B5644685B00025B0FBF1F301FB13024E
:10195000092A05F1010594BF3032373201AED2B207
:101960007719184607F8012C002BEDD12F46236874
:101970009D420ED2227CE3680AB1302000E0202094
:101980009847A368626801339342A3600FD2013580
:10199000EDE7A3686568ED1AAF4238BF3D462B44BA
:1019A000A36025B1013DE368705D9847F9E705B094
:1019B000F0BD00000000000000000000000000007A
:1019C0002DE9F0431C4687B0002304900291039355
:1019D00001938DF814301078561C50B125280CD086
:1019E000049B9847039B029A013393420393C0F0F0
:1019F0009580039807B0BDE8F0830022019211465C
:101A000016F8013BA3F13000C5B2092D07D812B971
:101A1000302B08BF01210A2303FB0202F0E70192E9
:101A200003F0DF02532A8DF8141010D1251D24680D
:101A300014F8013B002B6BD0039B5A1C0392029AB3
:101A4000934265D214F8010C049B9847F0E7632B8E
:101A50000BD1049B20789847039B029A0133934251
:101A600004F10405039353D3C3E7582B05D1251D77
:101A70000DF1040C2068102106E0752B07D12068B9
:101A8000251D0DF1040C0A21FFF75AFF40E0642BDD
:101A900011D1251D2468002C09DA049B2D209847BC
:101AA000039B029A013393420393A2D264420DF145
:101AB000040C2046E7E7412B29D101238DF814308F
:101AC0000223D4F80090D4F8048004F10C05A76830
:101AD0000193002444451BDA002C0CDC0DF1040CAE
:101AE00019F804001021FFF72BFF029B039A9A427A
:101AF0000ED20134EEE7002FF0D0049BF8B29847E5
:101B0000039B029A013393420393E7D300E02546F7
:101B1000029B039A9A42BFF46CAF2C4632465AE7B6
:101B2000F0B4840743D0541E002A3ED0CDB2034601
:101B300003E0621E002C38D0144603F8015B9A07BC
:101B4000F7D1032C2AD9CDB245EA05250F2C45EA59
:101B5000054515D9A4F110073F0903F1100606EB5E
:101B600007161A46156055609560D5601032B2426E
:101B7000F8D104F00F040137032C03EB07130DD940
:101B80001E462246043A032A46F8045BFAD8221F6E
:101B900022F003020432134404F003042CB1C9B24E
:101BA0001C4403F8011BA342FBD1F0BC7047144650
:101BB0000346C6E70000000000000000000000002F
:101BC000030406080C10182030000000000000007C
:101BD00000010203040607080900000000010203D7
:101BE00004000000000000000000000000000000F1
:101BF000417070002325582C25410D0A000000007B
:101C0000636352580A00000000000000000000005A
:101C100025642064426D0A00726164696F000000EF
:101C20005356233100535623320053562333005367
:101C3000562334005356233500535623360053564B
:101C40002337005356233800535623390053562365
:101C500031300053562331310000000000000000F5
:101C60006D61696E00168011040434080C1014189C
:101C70001C202100222400000000000000000000C1
:101C8000636853636852656164794928292C20236D
:101C90003100737461636B206F766572666C6F7769
:101CA0000000000000000000000000000000000034
:101CB00069646C6500000000000000000000000086
:101CC00022636854686443726561746549222829F7
:101CD000002263685468645365745072696F726956
:101CE0007479222829006368546864526573756D9D
:101CF0006528292C20233100226368546864536CC2
:101D000065657022282900636854686445786974A1
:101D10005328292C202331002263685468645761BA
:101D200069742228290063685468645761697428BB
:101D3000292C2023310000000000000000000000DA
:101D40002263685654536574492228290022636827
:101D500056545265736574492228290063685654A5
:101D600052657365744928292C2023310000000036
:101D700022646D6153747265616D416C6C6F636157
:101D800074652228290022646D6153747265616D47
:101D900052656C6561736522282900646D61537416
:101DA0007265616D52656C6561736528292C20230D
:101DB00031000000000000000000000000000000F2
:101DC000086002400460024000000B001C600240FA
:101DD0000460024004010C003060024004600240D4
:101DE00008020D0044600240046002400C030E0033
:101DF000586002400460024010040F006C60024012
:101E0000046002401405100080600240046002403B
:041E1000180611009F
:0400000508000A11D4
:00000001FF
