:020000040800F2
:1000000000040020C1070008A10B0008A10B000894
:10001000A10B0008A10B0008A10B0008A10B000810
:10002000A10B0008A10B0008A10B00088106000825
:10003000A10B0008A10B0008A10B00085107000844
:10004000A10B0008A10B0008A10B0008A10B0008E0
:10005000A10B0008A10B0008A10B0008A10B0008D0
:10006000A10B0008A10B0008A10B000881090008E2
:10007000B1090008E1090008110A0008410A000856
:10008000710A0008A10A0008A10B0008A10B0008D2
:10009000A10B0008A10B0008A10B0008A10B000890
:1000A000A10B0008A10B0008A10B0008A10B000880
:1000B000A10B0008A10B0008A10B0008A10B000870
:1000C000A10B0008A10B0008A10B0008A10B000860
:1000D000A10B0008A10B0008A10B0008A10B000850
:1000E000A10B0008A10B0008A10B0008A10B000840
:0400F000A10B000858
:0400F40001010008FE
:10010000074B0022C3F8F025C3F8F42503F5C862B5
:10011000C3F8C82603F28462C3F8CC26704700BF38
:100120007008002000000000000000000000000037
:1001300008B52E4800F03CFD00F0A2FB00F058F995
:100140002B492C48CB6943F00203CB612A4B1A6838
:1001500022F00C021A601A6842F004021A609A88AF
:1001600022F002021204120C9A809A8892B29A80AB
:10017000DA6822F00C02DA60DA68DA609A6822F053
:100180000C029A609A6842F00C029A60CA6942F0C6
:100190000202CA611A684FF4165122F003021A6073
:1001A0001A6842F001021A609A8822F001021204D1
:1001B000120C9A809A8892B29A80DA6822F003022E
:1001C000DA60DA68DA609A6822F003029A609A6864
:1001D00042F003029A6000F0EBFD40F2E73000F0DD
:1001E000B7F90448054900F0CBFDF6E764080020A4
:1001F000003802407008002000040240801400080B
:10020000034B00225B601B609A605B611B6170475F
:10021000400F00200000000000000000000000006F
:1002200010B5037F04460BB10E2B02D1084800F035
:10023000C7FE00232377A168064B1B689A688A4291
:10024000FBD25A682360626020465C60146010BD77
:10025000C0120008400F0020000000000000000055
:1002600008B5202383F31188037F83B1032B08D1C2
:10027000036A9A6801329A6090E80C001A6002687A
:1002800053604FF0FF330362FFF7CAFF002383F38D
:10029000118808BD00000000000000000000000000
:1002A000064B14229969087718688A7702685360A8
:1002B0001A6098610123037700F05ABA400F0020BA
:1002C00030B54B1C87B005460A4C0DD0A36901A878
:1002D000094A00F085F92846FFF7E2FF049B2BB19D
:1002E00001A800F0A5F901E0FFF7DAFFA369186A99
:1002F00007B030BD400F0020610200080000000080
:1003000038B50C4D0162AB6981689A680446914228
:1003100003D8BDE83840FFF783BF1846FFF780FFDA
:1003200001230146AC6123772046BDE8384000F048
:100330001FBA00BF400F00200000000000000000B6
:1003400038B50A4C2368A5691A68284654602260AB
:100350000122A3611A771423AB77FFF761FFA0692D
:100360002946BDE8384000F003BA00BF400F002026
:100370000C4B10B51868996902688C6853601A6054
:1003800001220277002298610A771B689A68A242CC
:10039000FBD85A680B604A60BDE810405960116094
:1003A00000F0E6B9400F002000000000000000004F
:1003B000034B9B699B7F0BB9FFF7C2BFFFF7D8BF09
:1003C000400F0020000000000000000000000000BE
:1003D000024B034A9B699A61FEE700BF400F002071
:1003E000E012000800000000000000000000000013
:1003F00007B500F055F9FFF703FF00F0E1F84021E1
:100400000C4800F04DF80C4B986101230377002352
:1004100083F3118862B6084B084A9B69A0219A6150
:10042000002300930122064B064800F079F803B040
:100430005DF804FB00080020400F0020A012000817
:10044000D1030008600F0020000000000000000041
:1004500038B5114B9B699A7F0AB1013A9A770F4BD5
:10046000DA681C460132DA601A689A4213D0916841
:100470000139916022680949936863B91068D568A9
:100480000860D360416083F311881069A847202376
:1004900083F31188EEE738BD400F002000100020E4
:1004A000022202770022427742628261044A81601E
:1004B000142181775169026141615061086170477F
:1004C000400F0020000000000000000000000000BD
:1004D0002DE9F041DDF818800D4616461F4604460A
:1004E00020B18F2902D97F2A00D813B9084800F01B
:1004F00067FD243D074B6019E06031466751C0F845
:10050000048003622046BDE8F041FFF7C9BF00BF89
:10051000F012000881070008000000000000000041
:1005200037B51D46202383F31188069C2B46009483
:10053000FFF7CEFF00210446FFF7E2FE002383F31E
:100540001188204603B030BD00000000000000000C
:1005500010B5044610B9074800F032FD202383F39C
:10056000118806202146FFF7ABFE002383F3118894
:1005700010BD00BF281300080000000000000000AC
:1005800008B5094B9B695A7F1862920704D15A69D2
:10059000196911611B695A610E20FFF781FEBDE8E0
:1005A0000840024800F00CBD400F0020371300083F
:1005B000202383F31188FFF7E3BF00000000000051
:1005C000044B4FF0FF329A6000225B601B60DA60E0
:1005D000704700BF00100020000000000000000075
:1005E000F8B50D4616461F46044608B102B111B9CA
:1005F0000C4800F0E5FC0C4A27611368E6601146E0
:100600009A68AA4202D2AD1A1B68F9E75A688B426F
:10061000236062605C601460A56002D09A68551B1C
:100620009D60F8BD5013000800100020000000007D
:1006300010B5044610B90B4800F0C2FCE36813B9CA
:10064000094800F0BDFC2368084A934203D099682A
:10065000A2680A449A606268136023685A600023A3
:10066000E36010BD5D1300086C130008001000204B
:10067000FFF79EFE00DF0000000000000000000009
:10068000EFF30983203383F30988002383F3118870
:1006900070470000000000000000000000000000A3
:1006A00008B50A4B00229A60094A0720DA60102137
:1006B00000F04EF90A204FF4007100F049F9BDE84E
:1006C00008400B20802100F043B900BF00ED00E09E
:1006D0000003FA0500000000000000000000000018
:1006E000202383F31188144B5B6813F4006320D03C
:1006F000EFF30983A3F1200282F309884FF080729F
:1007000043F8042C0D4A91691268887F92688968C1
:1007100020B18A4294BF0022012203E08A4234BF02
:10072000002201220AB1064A00E0064A43F8082CDA
:10073000704783F31188704700ED00E0400F002000
:1007400071060008740600080000000000000000A8
:1007500008B5202383F31188FFF77AFE002383F383
:100760001188BDE80840FFF7BBBF00000000000093
:100770002DE9F04FC1F80CD0D0F80CD0BDE8F08FC7
:10078000002383F311882846A047FFF711FF704725
:1007900070470000000000000000000000000000A2
:1007A0007047000000000000000000000000000092
:1007B000FEE7000000000000000000000000000054
:1007C00072B6224B83F30988022383F31488BFF3A4
:1007D0006F8F1F4B1D4A1F498B4204D24FF055317A
:1007E00043F8041BF7E71C4B934204D24FF05531FA
:1007F00043F8041BF8E7FFF7CBFF0023174A18491B
:100800009818884204D21749595899500433F5E78B
:10081000154B164A934203D2002243F8042BF8E703
:10082000FFF7BEFF124C134B9C4203D254F8043B1B
:100830009847F8E7FFF77CFC0F4C104B9C4203D223
:1008400054F8043B9847F8E7FFF7B2FF0008002090
:100850000000002000040020000400200008002008
:100860000008002098140008000800201010002044
:10087000F4000008F8000008F8000008F80000087C
:1008800000F006B8000000000000000000000000BA
:10089000154B1A6962F400421A6100221A619969C3
:1008A00061F0805199619A6159694FF0FF31596146
:1008B0005A61196A41F001011962D96A41F00101D6
:1008C000D9620A4908684FF47A71B0FBF1F008491F
:1008D000013848608A6007220A605A6A42F08052F2
:1008E0005A6200F0F5B800BF0038024064080020EA
:1008F00010E000E000000000000000000000000028
:1009000000F0030230B5D200FF249440914020F063
:10091000030303F1604303F56143D3F8005301225D
:1009200025EA04040C43C3F8004300F01F0302FA55
:1009300003F34009800000F1604000F56140C0F819
:100940008031036030BD00000000000000000000A6
:1009500020F0030300F00300C000FF22824081402A
:1009600003F1604310B503F56D439C6924EA02026C
:100970000A439A6110BD0000000000000000000062
:1009800008B5074B0F2219685A60064A01F00F019B
:1009900013680BB150689847BDE80840FFF7A0BE48
:1009A0000060024028080020000000000000000055
:1009B00008B5074BF02219685A60064AC1F30311C3
:1009C00093680BB1D0689847BDE80840FFF788BE30
:1009D0000060024028080020000000000000000025
:1009E00008B5084B4FF4706219685A60064AC1F3A3
:1009F000032113690BB150699847BDE80840FFF720
:100A00006FBE00BF00600240280800200000000008
:100A100008B5084B4FF4704219685A60064AC1F392
:100A2000033193690BB1D0699847BDE80840FFF7DF
:100A300057BE00BF006002402808002000000000F0
:100A400008B5084B4FF4702219685A60064AC1F382
:100A50000341136A0BB1506A9847BDE80840FFF79D
:100A60003FBE00BF006002402808002000000000D8
:100A700008B5084B4FF4700219685A60064AC1F372
:100A80000351936A0BB1D06A9847BDE80840FFF75D
:100A900027BE00BF006002402808002000000000C0
:100AA00008B5084B4FF0706219685A60064AC1F3E6
:100AB0000361136B0BB1506B9847BDE80840FFF71B
:100AC0000FBE00BF006002402808002000000000A8
:100AD000094A002313600C215943084A895800220F
:100AE0000A60074941F833200133072BF3D1054B46
:100AF0004FF0FF325A60704760080020D0130008A2
:100B000028080020006002400000000000000000F3
:100B10002DE9F0410F4615469846044610B91A488B
:100B200000F04EFA627A012000FA02FC174E31689A
:100B30001CEA010F26D116484CEA010340F8325056
:100B4000336000EBC2025B06C2F8048004D0114B94
:100B5000DA6942F08072DA6123680F201A68002691
:100B600022F00F021A60217A626800FA01F1116026
:100B70001E6035B1A07A3901FFF7C2FE3046BDE8EC
:100B8000F0812846BDE8F08180130008600800204D
:100B9000280800200038024000000000000000008B
:100BA000FEE7000000000000000000000000000060
:100BB000F0B593B00021202205460AA800F008FBFA
:100BC0004FF480330A934FF400330B934FF4802398
:100BD0000C93344B344A0D93344B51680E93344B81
:100BE00010680F93334B06AE109303AB03C3117A17
:100BF000197002F10903193217461868596834460A
:100C000003C4083393422646F7D13868796801ABAC
:100C100003C3294B9A68C2F38102022A24D0032A13
:100C20000CD0012A01D1254B1FE05B6812A8C3F349
:100C3000423300EB830353F8203C16E09A6812A974
:100C4000C2F383420A4412F83C1C9A689B681C4811
:100C500013F4803F194BC2F3815218BF03464B4334
:100C60000132B3FBF2F300E0154B134A12A891686E
:100C7000C1F30311014411F8301CCB402B60916883
:100C8000C1F30221014411F8441C23FA01F1696007
:100C90009268C2F3C222024412F8442CD340AB60E3
:100CA00013B0F0BD9CFF070070120008C0FD0F00DC
:100CB00068FF1F00D0FE3F00003802400024F4000F
:100CC00000127A0000000000000000000000000098
:100CD000D0F8E0355A1CC0F8E0251970D0F8E0359E
:100CE00000F2DC52934228BFC0F8E00570470000D4
:100CF00001460148FFF7ECBF70080020000000002B
:100D0000D0F8DC1500F2DC52D0F8E835521A9A42DD
:100D100028BF1A46C0F8EC2562B1002380F8E435FC
:100D2000054B5B6AD9605A6092221A601A6842F0D9
:100D300001021A60704700BFD013000800000000D5
:100D400058B50E46D0F8E8150446C1F5BB61134608
:100D500009480431324600F08BF9D4F8E8351844DC
:100D600094F8E435C4F8E80523B12046BDE85840BE
:100D7000FFF7C6BF58BD00BFF10C0008000000001F
:100D80000EB403B503AA52F8041B202383F3118881
:100D90000192FFF7D5FF002383F3118802B05DF8BD
:100DA00004EB03B0704700000000000000000000EA
:100DB0002DE9F84F544F4FF000080646C6F8E005FD
:100DC000C6F8DC050123C0F8E88580F8E435FB6946
:100DD0004E4C43F00103FB6123684D4D23F4402347
:100DE00023602368DFF834B143F400232360A08834
:100DF000484A20F400700004000CA080A388D94663
:100E00009BB2A380E368584623F44023E360E36881
:100E1000DFF80CA1E360A36806F5BF6623F4402366
:100E2000A360A36843F40023A360636A23F0F00384
:100E30006362636A43F0700363623B6A43F4804316
:100E40003B624FF40053AB81334B9B68B3FBF1F132
:100E50008BB22B8107214346A5F81080FFF758FE7F
:100E600059F824399222C3F808A01A600C23AB81E8
:100E7000C023AB82FB69424643F00103FB61236858
:100E80000BF10C0023F440132360236843F4001398
:100E90002360A18821F480610904090CA180A38842
:100EA0000F219BB243F48063A380E36823F44013D3
:100EB000E360E36843F48013E360A36823F4401322
:100EC000A360A36843F40013A360636A23F4706310
:100ED0006362636A43F4E06363624346FFF718FEAC
:100EE000D9F830304822C3F808A0DE605A60A0224A
:100EF0001A601A6842F001021A60AB899BB243F48F
:100F00000053AB81BDE8F88F00380240000002407A
:100F100000380140910F000864080020F413000815
:100F20000438014000000000000000000000000044
:100F3000134A10B5516A0C6824F00F040C60916AD2
:100F400092F82C200F2404FA02F20A60D0F8DC4553
:100F5000D0F8EC15D0F8E825521A214400F2DC5400
:100F6000A14228BF0146C0F8E825C0F8DC151AB92F
:100F7000012280F8E42510BDBDE81040FFF7C0BE97
:100F8000D013000800000000000000000000000076
:100F90000148FFF7CDBF00BF70080020000000002F
:100FA000013810F8013F2BB1034A11880906FBD51F
:100FB0009380F6E7704700BF003801400000000052
:100FC00008B5FFF7EDFF0648FFF7EAFF054B9B6901
:100FD0009869FFF7E5FFBDE808400348FFF7E0BF69
:100FE00030140008400F00203314000800000000F7
:100FF000F0B5644685B00025B0FBF1F301FB1302A8
:10100000092A05F1010594BF3032373201AED2B260
:101010007719184607F8012C002BEDD12F462368CD
:101020009D420ED2227CE3680AB1302000E02020ED
:101030009847A368626801339342A3600FD20135D9
:10104000EDE7A3686568ED1AAF4238BF3D462B4413
:10105000A36025B1013DE368705D9847F9E705B0ED
:10106000F0BD0000000000000000000000000000D3
:101070002DE9F0431C4687B00023049002910393AE
:1010800001938DF814301078561C50B125280CD0DF
:10109000049B9847039B029A013393420393C0F049
:1010A0009580039807B0BDE8F083002201921146B5
:1010B00016F8013BA3F13000C5B2092D07D812B9CB
:1010C000302B08BF01210A2303FB0202F0E7019243
:1010D00003F0DF02532A8DF8141010D1251D246867
:1010E00014F8013B002B6BD0039B5A1C0392029A0D
:1010F000934265D214F8010C049B9847F0E7632BE8
:101100000BD1049B20789847039B029A01339342AA
:1011100004F10405039353D3C3E7582B05D1251DD0
:101120000DF1040C2068102106E0752B07D1206812
:10113000251D0DF1040C0A21FFF75AFF40E0642B36
:1011400011D1251D2468002C09DA049B2D20984715
:10115000039B029A013393420393A2D264420DF19E
:10116000040C2046E7E7412B29D101238DF81430E8
:101170000223D4F80090D4F8048004F10C05A76889
:101180000193002444451BDA002C0CDC0DF1040C07
:1011900019F804001021FFF72BFF029B039A9A42D3
:1011A0000ED20134EEE7002FF0D0049BF8B298473E
:1011B000039B029A013393420393E7D300E0254651
:1011C000029B039A9A42BFF46CAF2C4632465AE710
:1011D000F0B4840743D0541E002A3ED0CDB203465B
:1011E00003E0621E002C38D0144603F8015B9A0716
:1011F000F7D1032C2AD9CDB245EA05250F2C45EAB3
:10120000054515D9A4F110073F0903F1100606EBB7
:1012100007161A46156055609560D5601032B242C7
:10122000F8D104F00F040137032C03EB07130DD999
:101230001E462246043A032A46F8045BFAD8221FC7
:1012400022F003020432134404F003042CB1C9B2A7
:101250001C4403F8011BA342FBD1F0BC70471446A9
:101260000346C6E700000000000000000000000088
:10127000030406080C1018203000000000000000D5
:101280000001020304060708090000000001020330
:10129000040000000000000000000000000000004A
:1012A0006D61696E00168011040428080C10141872
:1012B000001C1D001E0000000000000000000000D7
:1012C000636853636852656164794928292C202337
:1012D00031000000000000000000000000000000DD
:1012E00069646C6500000000000000000000000060
:1012F00022636854686443726561746549222829D1
:10130000002263685468645365745072696F72692F
:101310007479222829006368546864526573756D76
:101320006528292C20233100226368546864536C9B
:10133000656570222829006368546864457869747B
:101340005328292C20233100000000000000000059
:101350002263685654536574492228290022636821
:10136000565452657365744922282900636856549F
:1013700052657365744928292C2023310000000030
:1013800022646D6153747265616D416C6C6F636151
:1013900074652228290022646D6153747265616D41
:1013A00052656C6561736522282900646D61537410
:1013B0007265616D52656C6561736528292C202307
:1013C00031000000000000000000000000000000EC
:1013D000086002400460024000000B001C600240F4
:1013E0000460024004010C003060024004600240CE
:1013F00008020D0044600240046002400C030E002D
:10140000586002400460024010040F006C6002400B
:101410000460024014051000806002400460024035
:10142000180611000000000000000000000000008D
:101430002040000D000D20202020203020203120D1
:101440002032202033202034202035202036202038
:1014500037202038202039202041202042202043DE
:10146000202044202045202046000D253032583AC7
:101470002000202020002530325820002D2D200073
:1014800048656C6C6F2053544D33324C31353121EB
:021490000A0050
:04000005080007C127
:00000001FF
