:020000040800F2
:1000000000040020D1070008210B0008210B000884
:10001000210B0008210B0008210B0008210B000810
:10002000210B0008210B0008210B00089106000895
:10003000210B0008210B0008210B000861070008B4
:10004000210B0008210B0008210B0008210B0008E0
:10005000210B0008210B0008210B0008210B0008D0
:10006000210B000881120008210B000891090008EB
:10007000C1090008F1090008210A0008510A000816
:10008000810A0008B10A0008210B0008210B0008B2
:10009000210B0008210B0008210B0008210B000890
:1000A000210B0008210B0008210B0008210B000880
:1000B000210B0008210B0008210B0008210B000870
:1000C000210B0008210B0008210B0008210B000860
:1000D000210B0008210B0008210B0008210B000850
:1000E000210B0008210B0008210B0008210B000840
:0400F000210B0008D8
:0400F40001010008FE
:10010000074B0022C3F8F025C3F8F42503F5C862B5
:10011000C3F8C82603F28462C3F8CC26704700BF38
:100120007408002000000000000000000000000033
:1001300008B5022000F0BCFD304800F0F9FC2F4863
:1001400000F09EFD2D4800F00BFD00F0A1FB00F03B
:1001500057F92B4B2B48DA6942F00202DA61A3F51A
:1001600050531A6822F00C021A601A6842F0040216
:100170001A609A8822F002021204120C9A809A885D
:1001800092B29A80DA6822F00C02DA60DA68DA60F9
:100190009A6822F00C029A609A6842F00C029A6007
:1001A00000F01EFF862217483E2100F0D9FD1548B9
:1001B000002100F00DFE144B08221A7001225A7023
:1001C000104C237820462BB1362100F0E1FD0023AE
:1001D0002376F5E7332100F0DBFD0C4C238A5B0628
:1001E000FBD44FF4004525830648074900F020FE64
:1001F0006583142000F0B4F9E2E700BF680800202E
:1002000000380240440F0020600F00200000024030
:10021000034B00225B601B609A605B611B6170474F
:10022000640F00200000000000000000000000003B
:1002300010B5037F04460BB10E2B02D1084800F025
:1002400067FD00232377A168064B1B689A688A42E2
:10025000FBD25A682360626020465C60146010BD67
:1002600090130008640F0020000000000000000050
:1002700008B5202383F31188037F83B1032B08D1B2
:10028000036A9A6801329A6090E80C001A6002686A
:1002900053604FF0FF330362FFF7CAFF002383F37D
:1002A000118808BD000000000000000000000000F0
:1002B000064B14229969087718688A770268536098
:1002C0001A6098610123037700F05ABA640F002086
:1002D00030B54B1C87B005460A4C0DD0A36901A868
:1002E000094A00F085F92846FFF7E2FF049B2BB18D
:1002F00001A800F0A5F901E0FFF7DAFFA369186A89
:1003000007B030BD640F002071020008000000003B
:1003100038B50C4D0162AB6981689A680446914218
:1003200003D8BDE83840FFF783BF1846FFF780FFCA
:1003300001230146AC6123772046BDE8384000F038
:100340001FBA00BF640F0020000000000000000082
:1003500038B50A4C2368A5691A682846546022609B
:100360000122A3611A771423AB77FFF761FFA0691D
:100370002946BDE8384000F003BA00BF640F0020F2
:100380000C4B10B51868996902688C6853601A6044
:1003900001220277002298610A771B689A68A242BC
:1003A000FBD85A680B604A60BDE810405960116084
:1003B00000F0E6B9640F002000000000000000001B
:1003C000034B9B699B7F0BB9FFF7C2BFFFF7D8BFF9
:1003D000640F00200000000000000000000000008A
:1003E000024B034A9B699A61FEE700BF640F00203D
:1003F000B013000800000000000000000000000032
:1004000007B500F055F9FFF703FF00F0E1F84021D0
:100410000C4800F04DF80C4B986101230377002342
:1004200083F3118862B6084B084A9B69A0219A6140
:10043000002300930122064B064800F079F803B030
:100440005DF804FB00080020640F00207013000812
:10045000E1030008800F0020000000000000000001
:1004600038B5114B9B699A7F0AB1013A9A770F4BC5
:10047000DA681C460132DA601A689A4213D0916831
:100480000139916022680949936863B91068D56899
:100490000860D360416083F311881069A847202366
:1004A00083F31188EEE738BD640F00202010002090
:1004B000022202770022427742628261044A81600E
:1004C000142181775169026141615061086170476F
:1004D000640F002000000000000000000000000089
:1004E0002DE9F041DDF818800D4616461F460446FA
:1004F00020B18F2902D97F2A00D813B9084800F00B
:1005000007FC243D074B6019E06031466751C0F895
:10051000048003622046BDE8F041FFF7C9BF00BF79
:10052000C013000891070008000000000000000050
:1005300037B51D46202383F31188069C2B46009473
:10054000FFF7CEFF00210446FFF7E2FE002383F30E
:100550001188204603B030BD0000000000000000FC
:1005600010B5044610B9074800F0D2FB202383F3EE
:10057000118806202146FFF7ABFE002383F3118884
:1005800010BD00BFF81300080000000000000000CC
:1005900008B5094B9B695A7F1862920704D15A69C2
:1005A000196911611B695A610E20FFF781FEBDE8D0
:1005B0000840024800F0ACBB640F0020071400089C
:1005C000202383F31188FFF7E3BF00000000000041
:1005D000044B4FF0FF329A6000225B601B60DA60D0
:1005E000704700BF20100020000000000000000045
:1005F000F8B50D4616461F46044608B102B111B9BA
:100600000C4800F085FB0C4A27611368E660114630
:100610009A68AA4202D2AD1A1B68F9E75A688B425F
:10062000236062605C601460A56002D09A68551B0C
:100630009D60F8BD2014000820100020000000007C
:1006400010B5044610B90B4800F062FBE36813B91B
:10065000094800F05DFB2368084A934203D099687B
:10066000A2680A449A606268136023685A60002393
:10067000E36010BD2D1400083C1400082010002079
:10068000FFF79EFE00DF00000000000000000000F9
:10069000EFF30983203383F30988002383F3118860
:1006A0007047000000000000000000000000000093
:1006B00008B50A4B00229A60094A0720DA60102127
:1006C00000F04EF90A204FF4007100F049F9BDE83E
:1006D00008400B20802100F043B900BF00ED00E08E
:1006E0000003FA0500000000000000000000000008
:1006F000202383F31188144B5B6813F4006320D02C
:10070000EFF30983A3F1200282F309884FF080728E
:1007100043F8042C0D4A91691268887F92688968B1
:1007200020B18A4294BF0022012203E08A4234BFF2
:10073000002201220AB1064A00E0064A43F8082CCA
:10074000704783F31188704700ED00E0640F0020CC
:100750008106000884060008000000000000000078
:1007600008B5202383F31188FFF77AFE002383F373
:100770001188BDE80840FFF7BBBF00000000000083
:100780002DE9F04FC1F80CD0D0F80CD0BDE8F08FB7
:10079000002383F311882846A047FFF711FF704715
:1007A0007047000000000000000000000000000092
:1007B0007047000000000000000000000000000082
:1007C000FEE7000000000000000000000000000044
:1007D00072B6224B83F30988022383F31488BFF394
:1007E0006F8F1F4B1D4A1F498B4204D24FF055316A
:1007F00043F8041BF7E71C4B934204D24FF05531EA
:1008000043F8041BF8E7FFF7CBFF0023174A18490A
:100810009818884204D21749595899500433F5E77B
:10082000154B164A934203D2002243F8042BF8E7F3
:10083000FFF7BEFF124C134B9C4203D254F8043B0B
:100840009847F8E7FFF774FC0F4C104B9C4203D21B
:1008500054F8043B9847F8E7FFF7B2FF0008002080
:1008600000000020000400200004002000080020F8
:1008700000080020001500080008002030100020AB
:10088000F4000008F8000008F8000008F80000086C
:1008900000F006B8000000000000000000000000AA
:1008A000154B1A6962F400421A6100221A619969B3
:1008B00061F0805199619A6159694FF0FF31596136
:1008C0005A61196A41F001011962D96A41F00101C6
:1008D000D9620A4908684FF47A71B0FBF1F008490F
:1008E000013848608A6007220A605A6A42F08052E2
:1008F0005A6200F0F5B800BF0038024068080020D6
:1009000010E000E000000000000000000000000017
:1009100000F0030230B5D200FF249440914020F053
:10092000030303F1604303F56143D3F8005301224D
:1009300025EA04040C43C3F8004300F01F0302FA45
:1009400003F34009800000F1604000F56140C0F809
:100950008031036030BD0000000000000000000096
:1009600020F0030300F00300C000FF22824081401A
:1009700003F1604310B503F56D439C6924EA02025C
:100980000A439A6110BD0000000000000000000052
:1009900008B5074B0F2219685A60064A01F00F018B
:1009A00013680BB150689847BDE80840FFF7A0BE38
:1009B0000060024028080020000000000000000045
:1009C00008B5074BF02219685A60064AC1F30311B3
:1009D00093680BB1D0689847BDE80840FFF788BE20
:1009E0000060024028080020000000000000000015
:1009F00008B5084B4FF4706219685A60064AC1F393
:100A0000032113690BB150699847BDE80840FFF70F
:100A10006FBE00BF006002402808002000000000F8
:100A200008B5084B4FF4704219685A60064AC1F382
:100A3000033193690BB1D0699847BDE80840FFF7CF
:100A400057BE00BF006002402808002000000000E0
:100A500008B5084B4FF4702219685A60064AC1F372
:100A60000341136A0BB1506A9847BDE80840FFF78D
:100A70003FBE00BF006002402808002000000000C8
:100A800008B5084B4FF4700219685A60064AC1F362
:100A90000351936A0BB1D06A9847BDE80840FFF74D
:100AA00027BE00BF006002402808002000000000B0
:100AB00008B5084B4FF0706219685A60064AC1F3D6
:100AC0000361136B0BB1506B9847BDE80840FFF70B
:100AD0000FBE00BF00600240280800200000000098
:100AE000094A002313600C215943084A89580022FF
:100AF0000A60074941F833200133072BF3D1054B36
:100B00004FF0FF325A607047600800205014000810
:100B100028080020006002400000000000000000E3
:100B2000FEE70000000000000000000000000000E0
:100B3000084B1A6842F001021A604FF4A063054A9C
:100B40001268920703D4013BF9D1012070470020BD
:100B5000704700BF003802400000000000000000A5
:100B6000F0B593B00021202205460AA800F098FBBA
:100B70004FF480330A934FF400330B934FF48023E8
:100B80000C93344B344A0D93344B51680E93344BD1
:100B900010680F93334B06AE109303AB03C3117A67
:100BA000197002F10903193217461868596834465A
:100BB00003C4083393422646F7D13868796801ABFD
:100BC00003C3294B9A68C2F38102022A24D0032A64
:100BD0000CD0012A01D1254B1FE05B6812A8C3F39A
:100BE000423300EB830353F8203C16E09A6812A9C5
:100BF000C2F383420A4412F83C1C9A689B681C4862
:100C000013F4803F194BC2F3815218BF03464B4384
:100C10000132B3FBF2F300E0154B134A12A89168BE
:100C2000C1F30311014411F8301CCB402B609168D3
:100C3000C1F30221014411F8441C23FA01F1696057
:100C40009268C2F3C222024412F8442CD340AB6033
:100C500013B0F0BD9CFF070040130008C0FD0F005B
:100C600068FF1F00D0FE3F00003802400024F4005F
:100C700000127A00000000000000000000000000E8
:100C800008B5FFF755FF60B9074B9A6822F00302D9
:100C900042F001029A609A6802F00C02042AFAD12A
:100CA00008BD012008BD00BF003802400000000060
:100CB000094B4FF080525A62084B5A68D106FBD458
:100CC0001A6822F4C05242EAC0221A605A68D20658
:100CD000FCD4034B1870704700380240007000408D
:100CE0006408002000000000000000000000000078
:100CF000013810F8013F2BB1034A11880906FBD5D2
:100D00009380F6E7704700BF003801400000000004
:100D100008B5FFF7EDFF0648FFF7EAFF054B9B69B3
:100D20009869FFF7E5FFBDE808400348FFF7E0BF1B
:100D3000B0140008640F0020B31400080000000085
:100D4000024B1B8A5B06FBD4704700BF00000240C9
:100D5000036899811A89D207FCD59889C0B2704777
:100D60002DE9F041094C0646102588460836658372
:100D70001746FFF7E5FF41463046FFF7E9FF3046EB
:100D80003946FFF7E5FF2583BDE8F081000002400A
:100D9000F8B5094D102604460F466E83FFF7D0FFC5
:100DA00004F108003946FFF7D3FF20702E83237823
:100DB00003F070032370F8BD000002400000000043
:100DC00010B536210446FFF7E3FF0023237610BD5C
:100DD00038B504460D462378204613B1FFF7F0FFDF
:100DE000F9E72A460A21BDE83840FFF7B9BF0000FD
:100DF000F8B50D4B0546164610225A8308350F46A6
:100E0000FFF79EFF28467F21FFF7A2FF0024E3B2F1
:100E1000B34205D2395D2846FFF79AFF0134F6E761
:100E2000014B10221A83F8BD0000024000000000B0
:100E300038B504460D462378204613B1FFF7C0FFAE
:100E4000F9E729460122FFF7D3FF202383F3118816
:100E5000064B20469B6935216360FFF799FF02200E
:100E6000FFF726FA002383F3118838BD640F0020B2
:100E700010B50B2104460C22FFF772FF20460C210F
:100E80000022FFF76DFF20460D212022FFF768FFAB
:100E900020460E212522FFF763FF20460F21ED2279
:100EA000FFF75EFF204610212D22FFF759FF204655
:100EB00011212F22FFF754FF204612211322FFF7A2
:100EC0004FFF204613212222FFF74AFF204614211C
:100ED000E522FFF745FF20460A210022FFF740FFE9
:100EE000204615216222FFF73BFF20462121B62232
:100EF000FFF736FF204622211022FFF731FF204660
:100F000018210822FFF72CFF204619211D22FFF788
:100F100027FF20461A211C22FFF722FF20461B2113
:100F2000C722FFF71DFF20461C210022FFF718FFF4
:100F300020461D21B022FFF713FF20462321EA227D
:100F4000FFF70EFF204624212A22FFF709FF204643
:100F500025210022FFF704FF204626211F22FFF74C
:100F6000FFFE20462C218822FFF7FAFE20462D2185
:100F70003122FFF7F5FE20462E210922FFF7F0FE71
:100F8000204603210722FFF7EBFE2046002107221F
:100F9000FFF7E6FE204602210622FFF7E1FE20468B
:100FA00007210C22FFF7DCFE204608214422FFF730
:100FB000D7FE204606210122FFF7D2FE20463E2121
:100FC0005022FFF7CDFE204616210722FFF7C8FE6C
:100FD000204617210022BDE81040FFF7C1BE0000E7
:100FE000F8B58D4D8D4CEB69002743F00103EB61A3
:100FF0002368064623F4407323602368302143F4BA
:1010000080732360A38823F010031B041B0CA380B0
:10101000A3889BB2A380E36823F44073E360E36892
:10102000E360A36823F44073A360A36843F44073B0
:10103000A360EB6943F00103EB61236823F4406391
:101040002360236843F400632360A38823F0200314
:101050001B041B0CA380A3889BB2A380E36823F42A
:101060004063E360E368E360A36823F44063A36044
:10107000A36843F40063A360236A23F4700323622C
:10108000236A43F4A0032362EB6943F00103EB619D
:10109000236823F440532360236843F40053236000
:1010A000A38823F040031B041B0CA380A3889BB2DE
:1010B000A380E36823F44053E360E368E360A3683C
:1010C00023F44053A360A36843F40053A360236A4E
:1010D00023F070632362236A43F0A0632362EB6909
:1010E00043F00103EB61236823F44043236023684A
:1010F00043F400432360A38823F080031B041B0CEC
:10110000A380A3889BB2A380E36823F44043E360F9
:10111000E368E360A36823F44043A360A36843F457
:101120000043A360236A23F070432362236A43F0E1
:10113000A0432362EB6943F00103EB61236823F0D2
:10114000C0032360E36823F0C003E360E368E36067
:10115000EB6943F00103EB61236823F03003236064
:10116000E36823F03003E360E368E3601023238344
:101170002B4B83602A6A42F480522A624FF44172F8
:101180001A801A8892B21A809F809A8B22F4006289
:101190001204120C9A831A8892B242F040021A800A
:1011A000FFF7F6FD30463A21FFF7F2FD3046FFF734
:1011B0005FFE032333752B6A776043F001033776B4
:1011C00034612B62174B01219A68092022F4704286
:1011D0009A60D3F8002442F00802C3F80024D3F840
:1011E000042422F00802C3F80424327D01FA02F23A
:1011F000D3F8081421EA0201C3F80814D3F80C1438
:101200000A43C3F80C240822C3F814249021F06088
:10121000BDE8F840FFF77CBB003802400000024008
:10122000003001400000014000000000000000000C
:10123000037E023BDBB2012B9CBF00230376704789
:1012400010B5037D01229A400C4B04465A612023BD
:1012500083F31188436853B11A7F022A04D1002214
:101260001A624068FEF7E4FF0023636001E0FFF7C5
:10127000DFFF002383F3118810BD00BF000401408D
:1012800008B50348FFF7DCFFBDE80840FFF730BAB8
:10129000440F0020000000000000000000000000DB
:1012A000F0B4840743D0541E002A3ED0CDB203468A
:1012B00003E0621E002C38D0144603F8015B9A0745
:1012C000F7D1032C2AD9CDB245EA05250F2C45EAE2
:1012D000054515D9A4F110073F0903F1100606EBE7
:1012E00007161A46156055609560D5601032B242F7
:1012F000F8D104F00F040137032C03EB07130DD9C9
:101300001E462246043A032A46F8045BFAD8221FF6
:1013100022F003020432134404F003042CB1C9B2D6
:101320001C4403F8011BA342FBD1F0BC70471446D8
:101330000346C6E7000000000000000000000000B7
:10134000030406080C101820300000000000000004
:10135000000102030406070809000000000102035F
:101360000400000000000000000000000000000079
:101370006D61696E00168011040428080C101418A1
:10138000001C1D001E000000000000000000000006
:10139000636853636852656164794928292C202366
:1013A000310000000000000000000000000000000C
:1013B00069646C650000000000000000000000008F
:1013C0002263685468644372656174654922282900
:1013D000002263685468645365745072696F72695F
:1013E0007479222829006368546864526573756DA6
:1013F0006528292C20233100226368546864536CCB
:1014000065657022282900636854686445786974AA
:101410005328292C20233100000000000000000088
:101420002263685654536574492228290022636850
:1014300056545265736574492228290063685654CE
:1014400052657365744928292C202331000000005F
:10145000086002400460024000000B001C60024073
:101460000460024004010C0030600240046002404D
:1014700008020D0044600240046002400C030E00AC
:10148000586002400460024010040F006C6002408B
:1014900004600240140510008060024004600240B5
:1014A000180611000000000000000000000000000D
:1014B0002040000D000D2020202020302020312051
:1014C00020322020332020342020352020362020B8
:1014D000372020382020392020412020422020435E
:1014E000202044202045202046000D253032583A47
:1014F0002000202020002530325820002D2D2000F3
:04000005080007D117
:00000001FF
