:020000040800F2
:1000000000040020010D0008810B0008810B00088E
:10001000810B0008810B0008810B0008810B000890
:10002000810B0008810B0008810B0008A10B000860
:10003000810B0008810B0008810B0008710C00087F
:10004000810B0008810B0008810B0008810B000860
:10005000810B0008810B0008810B0008810B000850
:10006000810B0008E10A0008810B0008D117000885
:10007000011800083118000871180008B1180008AC
:10008000F118000831190008810B0008810B0008E5
:10009000810B0008810B0008810B0008810B000810
:1000A000810B0008810B0008810B0008810B000800
:1000B000810B0008810B0008810B0008810B0008F0
:1000C000810B0008810B0008810B0008810B0008E0
:1000D000810B0008810B0008810B0008810B0008D0
:1000E000810B0008810B0008810B0008810B0008C0
:0400F000810B000878
:10010000354C07B5032001F02BFD204601F098FC8B
:1001100001F01EFB01F084F930484FF4E13101F0A9
:1001200097FDA3682E49009394E80C002B482D4CB2
:1001300001F04EFD0025FF262B4802F0A1FB2664AE
:100140004FF4E170E563A56301F052FA25644FF4C2
:10015000E170E663A56301F04BFA2564E563A663ED
:10016000224C4FF4E17001F043FA204602F030FBDC
:100170001F4B6361202383F3118800F031FE20467A
:100180001B4902F03DFB00F043FE002383F311887E
:10019000184C204602F01CFC174B6361202383F3AC
:1001A000118800F01DFE2046134902F041FC00F0CA
:1001B0002FFE002383F31188104802F099FC1048A9
:1001C000002100F03DF90F4800F0A2F840F2D7708E
:1001D00001F00EFAFAE700BF000C00200C0C002022
:1001E000D02D000800040040540E0020300E0020E6
:1001F000B02D0008180E0020A02D00086C0E002065
:10020000BC090020B8090020000000000000000028
:1002100008B5202383F3118800F012FE084B042157
:10022000186800F0DDFE07484FF4FC71064A002311
:1002300001F03EFA00F01CFE002383F3118808BD94
:10024000B809002008080020110200080000000082
:1002500038B505460C466961202383F3118800F008
:10026000BFFD2846214602F0CBFA00F0D1FD002365
:1002700083F3118838BD000000000000000000007A
:1002800008B509485021094A082302F0E1FC48B9A1
:1002900007480849FFF7DCFFBDE8084040F2D77087
:1002A00001F0A6B908BD00BF6C0E002000080020B8
:1002B000300E0020702D000800000000000000003B
:1002C00008B50C4B0C4A9B699A6100244FF0FF3033
:1002D00000F0AEFE4307F9D50848502102F098FC23
:1002E0000028F2D1002CF1D10548FFF7C9FF012405
:1002F000ECE700BFAC120020992D00086C0E002026
:10030000B80900200000000000000000000000000C
:1003100013B50023044600934FF4CC7140220C4BDC
:100320000C4801F035F92023206083F3118800F098
:1003300057FD09484FF4FC71084A002301F0B8F951
:1003400000F066FD002383F3118802B010BD00BFEA
:10035000C10200082008002008080020110200083F
:1003600070B50546294C237820462BB1362100F084
:100370003FF900232376F5E7332100F039F9244BC8
:100380001E8A06F04006B6B2002EF8D11F484FF480
:1003900099712A4600F05CF90446E8B91D491E48E7
:1003A00095F9052001F014FC95F9051011F1640F81
:1003B00015DB11F15A0F16DB11F1500F16DB11F19D
:1003C000460F17DB11F13C0F17DB11F1320FACBFF9
:1003D000FF210021FF230BE03346314608E023468E
:1003E0002146FF240CE02346FF2108E02346FF219D
:1003F0001C4605E0FF23194602E0FF2321460C4678
:10040000064A1464D1639363ACE700BF700B00200D
:1004100000000240002E00080C0C002000040040E8
:1004200008B5034B034A9B6903489A61FFF798FF9D
:10043000AC120020042E0008BC09002000000000BF
:10044000214B37B5DA69214C42F00202DA61A3F59B
:1004500050531A68054622F040521A601A68204626
:1004600042F080521A609A8822F480421204120CE0
:100470009A809A8892B29A80DA6822F04052DA60C2
:10048000DA68DA609A6822F040529A609A6842F01C
:1004900040529A6000F0CCF9204650223E2100F0F4
:1004A0008FF82046002100F0C3F80123AB61002340
:1004B00000934FF4CC717F22054B064801F068F899
:1004C000E86003B030BD00BF00380240700B002070
:1004D00021040008D80900200000000000000000EE
:1004E000024B1B8A5B06FBD4704700BF0000024032
:1004F000036899811A89D207FCD59889C0B27047E0
:100500007F29C4BFA1F5807189B208B2022390FB94
:10051000F3F04A3840B270470000000000000000CD
:10052000F8B5094C064610250F4608366583FFF7D7
:10053000D7FF47F080013046FFF7DAFF3046002151
:10054000FFF7D6FF2583F8BD000002400000000041
:10055000F8B50E4678210746FFF7E2FF030626D5D9
:10056000144B10225A8307F10804FFF7B9FF204605
:10057000FF21FFF7BDFF002520460021FFF7B8FF50
:1005800070550135052DF7D120460021FFF7B0FF4A
:10059000002105462046FFF7ABFF064B10221A83C9
:1005A00038462946FFF7ACFF70710020F8BD0120E6
:1005B000F8BD00BF00000240000000000000000085
:1005C0002DE9F041094C064610258846083665831A
:1005D0001746FFF785FF41463046FFF789FF304653
:1005E0003946FFF785FF2583BDE8F0810000024012
:1005F000F8B5094D102604460F466E83FFF770FFCD
:1006000004F108003946FFF773FF20702E8323782A
:1006100003F070032370F8BD0000024000000000EA
:1006200010B536210446FFF7E3FF0023237610BD03
:1006300038B504460D462378204613B1FFF7F0FF86
:10064000F9E72A460A21BDE83840FFF7B9BF0000A4
:1006500070B50D463A2104461646FFF7C9FF202320
:1006600083F3118800F0BCFB114B34219869606062
:100670002046FFF7BDFF4FF47A735D43A5F57A7509
:10068000B5FBF3F10131022000F072FD054600F0E8
:10069000BFFB002383F311880135204604D0314687
:1006A000BDE87040FFF754BFFFF7BAFF022070BDEE
:1006B000AC1200200000000000000000000000005C
:1006C00010B50B2104460C22FFF77AFF20460C21BF
:1006D0000022FFF775FF20460D212022FFF770FF53
:1006E00020460E212522FFF76BFF20460F21ED2229
:1006F000FFF766FF204610212D22FFF761FF2046FD
:1007000011212F22FFF75CFF204612211322FFF751
:1007100057FF204613212222FFF752FF20461421C3
:10072000E522FFF74DFF20460A210022FFF748FF90
:10073000204615216222FFF743FF20462121B622E1
:10074000FFF73EFF204622211022FFF739FF204607
:1007500018210822FFF734FF204619211D22FFF738
:100760002FFF20461A211C22FFF72AFF20461B21BB
:10077000C722FFF725FF20461C210022FFF720FF9C
:1007800020461D21B022FFF71BFF20462321EA222D
:10079000FFF716FF204624212A22FFF711FF2046EB
:1007A00025210022FFF70CFF204626211F22FFF7FC
:1007B00007FF20462C218822FFF702FF20462D212B
:1007C0003122FFF7FDFE20462E210922FFF7F8FE19
:1007D000204603210722FFF7F3FE204600210722CF
:1007E000FFF7EEFE204602210622FFF7E9FE204633
:1007F00007210C22FFF7E4FE204608214422FFF7E0
:10080000DFFE204606210522FFF7DAFE20463E21C4
:100810005022FFF7D5FE204616210722FFF7D0FE13
:10082000204617210022BDE81040FFF7C9BE000096
:10083000F8B58D4D8D4CEB69002743F00103EB615A
:100840002368064623F4407323602368302143F471
:1008500080732360A38823F010031B041B0CA38068
:10086000A3889BB2A380E36823F44073E360E3684A
:10087000E360A36823F44073A360A36843F4407368
:10088000A360EB6943F00103EB61236823F4406349
:100890002360236843F400632360A38823F02003CC
:1008A0001B041B0CA380A3889BB2A380E36823F4E2
:1008B0004063E360E368E360A36823F44063A360FC
:1008C000A36843F40063A360236A23F470032362E4
:1008D000236A43F4A0032362EB6943F00103EB6155
:1008E000236823F440532360236843F400532360B8
:1008F000A38823F040031B041B0CA380A3889BB296
:10090000A380E36823F44053E360E368E360A368F3
:1009100023F44053A360A36843F40053A360236A05
:1009200023F070632362236A43F0A0632362EB69C0
:1009300043F00103EB61236823F440432360236801
:1009400043F400432360A38823F080031B041B0CA3
:10095000A380A3889BB2A380E36823F44043E360B1
:10096000E368E360A36823F44043A360A36843F40F
:100970000043A360236A23F070432362236A43F099
:10098000A0432362EB6943F00103EB61236823F08A
:10099000C0032360E36823F0C003E360E368E3601F
:1009A000EB6943F00103EB61236823F0300323601C
:1009B000E36823F03003E360E368E36010232383FC
:1009C0002B4B83602A6A42F480522A624FF44172B0
:1009D0001A801A8892B21A809F809A8B22F4006241
:1009E0001204120C9A831A8892B242F040021A80C2
:1009F000FFF7FEFD30463A21FFF7FAFD3046FFF7DC
:100A00005FFE032333752B6A776043F0010337766B
:100A100034612B62174B01219A68092022F470423D
:100A20009A60D3F8002442F00802C3F80024D3F8F7
:100A3000042422F00802C3F80424327D01FA02F2F1
:100A4000D3F8081421EA0201C3F80814D3F80C14EF
:100A50000A43C3F80C240822C3F814249021F06040
:100A6000BDE8F84000F04CB80038024000000240F9
:100A700000300140000001400000000000000000C4
:100A8000037E023BDBB2012B9CBF00230376704741
:100A900010B5037D01229A400F4B04465A61202372
:100AA00083F3118800F0CCF963685BB193F82020E0
:100AB000022A04D100229A62606800F0E9FA002359
:100AC000636002E02046FFF7DBFF00F0D1F900236E
:100AD00083F3118810BD00BF000401400000000036
:100AE00008B500F0DDF90448FFF7D2FF00F0F8F98F
:100AF000BDE8084000F084B8700B00200000000042
:100B000000F0030230B5D200FF249440914020F061
:100B1000030303F1604303F56143D3F8005301225B
:100B200025EA04040C43C3F8004300F01F0302FA53
:100B300003F34009800000F1604000F56140C0F817
:100B40008031036030BD00000000000000000000A4
:100B500020F0030300F00300C000FF228240814028
:100B600003F1604310B503F56D439C6924EA02026A
:100B70000A439A6110BD0000000000000000000060
:100B8000FEE7000000000000000000000000000080
:100B900000F026F900F09CFB00F03AF900DF0000BD
:100BA000EFF30983203383F30988002383F311884B
:100BB000704700000000000000000000000000007E
:100BC00008B50A4B00229A60094A0720DA60102112
:100BD000FFF7BEFF0A204FF40071FFF7B9FFBDE831
:100BE00008400B208021FFF7B3BF00BF00ED00E0FD
:100BF0000003FA05000000000000000000000000F3
:100C0000202383F31188154B5B6813F4006321D014
:100C1000EFF30983A3F1200282F309884FF0807279
:100C200043F8042C0E4A9169126891F822009268E8
:100C3000896820B18A4294BF0022012203E08A42DF
:100C400034BF002201220AB1064A00E0064A43F8F6
:100C5000082C704783F31188704700BF00ED00E057
:100C6000AC120020910B00089C0B00080000000053
:100C700008B500F015F9202383F3118800F0E0F89F
:100C800000F006FC00F0F4F8002383F3118800F074
:100C900027F9BDE80840FFF7B3BF000000000000DF
:100CA0002DE9F04FC1F80CD0D0F80CD0BDE8F08F92
:100CB00008B500F0ADF8002383F311882846A0475B
:100CC00000F0D6FC08BD000000000000000000009D
:100CD000704700000000000000000000000000005D
:100CE000704700000000000000000000000000004D
:100CF000FEE700000000000000000000000000000F
:100D000072B6224B83F30988022383F31488BFF35E
:100D10006F8F1F4B1D4A1F498B4204D24FF0553134
:100D200043F8041BF7E71C4B934204D24FF05531B4
:100D300043F8041BF8E7FFF7CBFF0023174A1849D5
:100D40009818884204D21749595899500433F5E746
:100D5000154B164A934203D2002243F8042BF8E7BE
:100D6000FFF7BEFF124C134B9C4203D254F8043BD6
:100D70009847F8E7FFF7C4F90F4C104B9C4203D299
:100D800054F8043B9847F8E7FFF7B2FF000800204B
:100D900000000020000400200004002000080020C3
:100DA00000080020C831000800080020801300203F
:100DB000F4000008F4000008F4000008F400000843
:100DC000044B1B6813B9044B1B6813B1034801F0B3
:100DD00047B97047A4120020A81200201A2E00085C
:100DE000064B10B51B68064C0BB9236813B10548B8
:100DF00001F036F90123236010BD00BFA4120020CA
:100E0000A81200201F2E00080000000000000000B3
:100E1000064B10B51B68064C13B92368002B02DC87
:100E2000044801F01DF90023236010BDA412002026
:100E3000A8120020242E000800000000000000007E
:100E4000064B10B51B68064C002B01DD236813B15F
:100E5000044801F005F90123236010BDA41200200D
:100E6000A8120020292E0008000000000000000049
:100E7000074B10B51B68074C002B02DD2368002BC5
:100E800002DC054801F0ECF80023236010BD00BF30
:100E9000A4120020A81200202E2E0008000000003E
:100EA00010B5202383F31188084C2368002B02DB44
:100EB000074B1B6813B1074801F0D2F823680133D0
:100EC0002360002383F3118810BD00BFA41200200B
:100ED000A8120020332E00080000000000000000CF
:100EE00010B5202383F31188084C2368002B02DD02
:100EF000074B1B6813B1074801F0B2F82368013BA8
:100F00002360002383F3118810BD00BFA4120020CA
:100F1000A8120020382E0008000000000000000089
:100F2000054B1B68002B03DB044B1B68002B02DC0A
:100F3000034801F095B87047A4120020A8120020C1
:100F40003D2E00080000000000000000000000002E
:100F5000054B1B681BB9054B1B68002B02DC0448C2
:100F600001F07EB8704700BFA4120020A812002034
:100F7000432E0008000000000000000000000000F8
:100F8000034A4021134643F8081B5360704700BFD3
:100F9000980E00200000000000000000000000008B
:100FA0000C4B0D495A68C968103242F8101C0B49A5
:100FB000896942F80C1C816A42F8081C90F82010DC
:100FC00002F8041C03F581618A4228BF03F108027C
:100FD0005A607047980E002070130020AC12002059
:100FE00038B504460D46FFF79BFF14B90D4801F0D4
:100FF00037F8236B45EA030194F820302163082B6E
:1010000003D1A36A194206D138BD092B08D1A36ABE
:101010001940994204D1204600F03AF80023836237
:1010200038BD00BF7A2E000800000000000000005C
:101030000E4B70B59C690546202383F31188FFF79A
:10104000CFFE266B2E4005D1A562082000F068F87F
:10105000266B2E40236B23EA06032363FFF7D8FE9B
:10106000002383F31188304670BD00BFAC1200200E
:10107000034B00225B601B609A605B611B617047E1
:10108000AC12002000000000000000000000000082
:1010900010B50446FFF744FF94F820300BB10E2B37
:1010A00002D1094800F0DCFF002384F82030A16859
:1010B000064B1B689A688A42FBD25A6823606260BA
:1010C00020465C60146010BD002F0008AC120020A8
:1010D00038B50446202383F31188FFF7B1FE94F856
:1010E00020505DB1032D0DD1A36A9A6801329A6038
:1010F00094E80C001A602268536003E0FFF7B8FE22
:101100002B4608E04FF0FF33A3622046FFF7C0FFF5
:10111000FFF7AEFE002383F3118838BD0000000006
:1011200070B5114C0646FFF713FFA569142385F827
:101130002230236885F820601A68284654602260AF
:10114000012283F82020A361FFF72AFFEB69ADF1AC
:101150002402934202D9054800F082FFA069294683
:10116000BDE87040FFF79CBDAC120020122F0008B4
:1011700070B50E4686B00546FFF7EAFE731C0C4CB0
:101180000ED0A36901A831460A4A00F091FA284618
:10119000FFF7C6FF049B33B101A800F0B1FA02E0EB
:1011A0002846FFF7BDFFA369986A06B070BD00BF6F
:1011B000AC120020D1100008000000000000000068
:1011C00070B5134E04460D46FFF7C2FEB069A26823
:1011D0008368A5629A4204D82046BDE87040FFF7B4
:1011E00057BFFFF755FF0123054684F82030B4614F
:1011F000FFF7D6FEEB69ADF12402934202D9054810
:1012000000F02EFF20462946BDE87040FFF748BD9C
:10121000AC120020122F00080000000000000000A7
:1012200038B5104C2368A5691A68284654602260B6
:10123000012283F82020A361142385F82230FFF7D0
:1012400027FF2846FFF7ACFEEB69ADF1240293427D
:1012500002D9054800F004FFA0692946BDE83840DE
:10126000FFF71EBDAC120020122F00080000000086
:1012700038B5144B1A689C6911681D464B6019609B
:10128000012182F820109A61A168002284F82020B0
:101290001B689A688A42FBD85A68236062602046BD
:1012A0005C601460FFF77CFEE369ADF124029342B9
:1012B00002D9054800F0D4FEA8692146BDE83840AF
:1012C000FFF7EEBCAC120020122F00080000000057
:1012D000044B9B6993F822300BB9FFF7A1BFFFF7CE
:1012E000C7BF00BFAC1200200000000000000000DB
:1012F00038B50D46044608B1002902DA034800F06B
:10130000AFFE64602460A56038BD00BF302F0008C8
:1013100038B50446FFF71CFE14B9124800F0A0FED1
:10132000A368002B236802DBA34202D104E0A3429E
:1013300002D10D4800F094FEA368013B002BA3608E
:101340000DDA0A4D0320AB699C6262681C605A602A
:1013500063601360FFF7E4FEAB69986A38BD002054
:1013600038BD00BF602F00086F2F0008AC120020AE
:1013700010B52023044683F31188FFF731FD204682
:10138000FFF7C6FF0446FFF743FD002383F31188F0
:10139000204610BD0000000000000000000000001A
:1013A00010B5044610B9134800F05AFEA368002B8C
:1013B000236802DBA34202D104E0A34202D10E481B
:1013C00000F04EFE202383F31188FFF709FDA36888
:1013D0000133002BA36006DC206800210368236032
:1013E0005C60FFF7EDFEFFF713FD002383F3118828
:1013F00010BD00BFAE2F0008BE2F00080000000087
:10140000024B034A9B699A61FEE700BFAC120020C1
:101410006030000800000000000000000000000034
:1014200007B5FFF7CDFBFFF723FE00F031F9FFF71B
:10143000A7FD40210F4800F063F80F4B986101238E
:1014400080F820300D4BC361FFF7BAFC002383F313
:10145000118862B6084B0A4A9B69A8219A61002349
:1014600000930122074B084800F092F803B05DF8A2
:1014700004FB00BF8C0B0020AC12002000040020F5
:10148000E02E000801140008C8120020000000002F
:10149000F8B5FFF745FD164B9B6993F8222012B172
:1014A000013A83F822205A6A01325A62114BDA68F3
:1014B0001E460132DA601A689A4218D091680139E2
:1014C000916034680B4AA5688DB92168E768E560CA
:1014D0004A601160FFF7CCFC2B4683F3118820692A
:1014E000B847202383F31188FFF7AAFCE9E7F8BD8A
:1014F000AC1200207013002000000000000000006B
:10150000022280F82020002280F82120026342621B
:101510008261084A8160142180F8221051690261B9
:101520004161506100F12C020861C26200F1340295
:10153000C2617047AC1200200000000000000000F3
:101540002DE9F04104460F4615461E46DDF8188089
:10155000FFF7E6FC24B1972F02D97F2D00D816B9EA
:10156000084800F07DFD243F074BE019E060294664
:10157000E651C0F8048003622046BDE8F041FFF761
:10158000BFBF00BF70300008B10C000800000000B1
:101590002DE9F341044600F134050E4690461F46FE
:1015A0000020FF23235401303428FAD1A3199D428F
:1015B00003D2552205F8012BF9E7202383F3118884
:1015C000FFF70EFC08993B46424600912046314603
:1015D000FFF7B6FF00210446FFF7F2FDFFF718FC06
:1015E000002383F31188204602B0BDE8F08100009B
:1015F00010B5044610B9094800F032FD202383F3EA
:101600001188FFF7EDFB21460620FFF7B1FDFFF73C
:10161000FFFB002383F3118810BD00BFA830000832
:101620000F4B10B59C69A062234653F82C0F9842CB
:1016300004D00368E362FFF72BFDF5E794F821304F
:101640009B0704D1226963691A61226953610E20E4
:10165000FFF766FDBDE81040024800F001BD00BF85
:10166000AC120020B73000080000000000000000AD
:1016700010B52023044683F31188FFF7B1FB204601
:10168000BDE81040FFF7CCBF0000000000000000E4
:10169000044B4FF0FF329A6000225B601B60DA60FF
:1016A000704700BF70130020000000000000000021
:1016B000F8B504460D4616461F46FFF731FC0CB13F
:1016C00006B115B90C4800F0CBFC0C4A2761136831
:1016D000E66011469A68AA4202D2AD1A1B68F9E781
:1016E0005A688B42236062605C601460A56002D01F
:1016F0009A68551B9D60F8BDF030000870130020FB
:1017000010B50446FFF70CFC14B90B4800F0A8FC18
:10171000E36813B9094800F0A3FC2368084A934220
:1017200003D09968A2680A449A60626813602368CB
:101730005A600023E36010BDFD3000080C31000842
:1017400070130020000000000000000000000000F6
:1017500000F006B8000000000000000000000000DB
:10176000154B1A6962F400421A6100221A619969E4
:1017700061F0805199619A6159694FF0FF31596167
:101780005A61196A41F001011962D96A41F00101F7
:10179000D9620A4908684FF47A71B0FBF1F0084940
:1017A000013848608A6007220A605A6A42F0805213
:1017B0005A6200F0DDB800BF00380240000C002083
:1017C00010E000E000000000000000000000000049
:1017D00008B5FFF765FB084B0F2219685A60074AE6
:1017E00001F00F0113680BB150689847FFF778FBC1
:1017F000BDE80840FFF704BA00600240C00B0020BB
:1018000008B5FFF74DFB084BF02219685A60074AEC
:10181000C1F3031193680BB1D0689847FFF760FBE1
:10182000BDE80840FFF7ECB900600240C00B0020A3
:1018300008B5FFF735FB094B4FF4706219685A6021
:10184000074AC1F3032113690BB150699847FFF7A9
:1018500047FBBDE80840FFF7D3B900BF0060024076
:10186000C00B00200000000000000000000000008D
:1018700008B5FFF715FB094B4FF4704219685A6021
:10188000074AC1F3033193690BB1D0699847FFF759
:1018900027FBBDE80840FFF7B3B900BF0060024076
:1018A000C00B00200000000000000000000000004D
:1018B00008B5FFF7F5FA094B4FF4702219685A6022
:1018C000074AC1F30341136A0BB1506A9847FFF707
:1018D00007FBBDE80840FFF793B900BF0060024076
:1018E000C00B00200000000000000000000000000D
:1018F00008B5FFF7D5FA094B4FF4700219685A6022
:10190000074AC1F30351936A0BB1D06A9847FFF7B6
:10191000E7FABDE80840FFF773B900BF0060024076
:10192000C00B0020000000000000000000000000CC
:1019300008B5FFF7B5FA094B4FF0706219685A60A5
:10194000074AC1F30361136B0BB1506B9847FFF764
:10195000C7FABDE80840FFF753B900BF0060024076
:10196000C00B00200000000000000000000000008C
:10197000094A002313600C215943084A8958002260
:101980000A60074941F833200133072BF3D1054B97
:101990004FF0FF325A607047F80B0020703100089A
:1019A000C00B0020006002400000000000000000AA
:1019B0002DE9F0410F4615469846044610B91A48DD
:1019C00000F04EFB627A012000FA02FC174E3168EB
:1019D0001CEA010F26D116484CEA010340F83250A8
:1019E000336000EBC2025B06C2F8048004D0114BE6
:1019F000DA6942F08072DA6123680F201A680026E3
:101A000022F00F021A60217A626800FA01F1116077
:101A10001E6035B1A07A3901FFF772F83046BDE893
:101A2000F0812846BDE8F08120310008F80B002045
:101A3000C00B002000380240000000000000000041
:101A4000F0B593B00021202205460AA801F028F93C
:101A50004FF480330A934FF400330B934FF48023F9
:101A60000C93344B344A0D93344B51680E93344BE2
:101A700010680F93334B06AE109303AB03C3117A78
:101A8000197002F10903193217461868596834466B
:101A900003C4083393422646F7D13868796801AB0E
:101AA00003C3294B9A68C2F38102022A24D0032A75
:101AB0000CD0012A01D1254B1FE05B6812A8C3F3AB
:101AC000423300EB830353F8203C16E09A6812A9D6
:101AD000C2F383420A4412F83C1C9A689B681C4873
:101AE00013F4803F194BC2F3815218BF03464B4396
:101AF0000132B3FBF2F300E0154B134A12A89168D0
:101B0000C1F30311014411F8301CCB402B609168E4
:101B1000C1F30221014411F8441C23FA01F1696068
:101B20009268C2F3C222024412F8442CD340AB6044
:101B300013B0F0BD9CFF0700402D0008C0FD0F0052
:101B400068FF1F00D0FE3F00003802400024F40070
:101B500000127A00000000000000000000000000F9
:101B6000094B4FF080525A62084B5A68D106FBD499
:101B70001A6822F4C05242EAC0221A605A68D20699
:101B8000FCD4034B187070470038024000700040CE
:101B9000FC0B00200000000000000000000000001E
:101BA000D0F8FC315A1CC0F8FC211970D0F8FC3177
:101BB00000F5FC72934228BFC0F8FC01704700009A
:101BC00001460148FFF7ECBF0C0C002000000000AC
:101BD0000EB417B5D0F8FC31D0F8F81104468B429A
:101BE00028BF01F5FC71C91A144806AB059A019388
:101BF00000F03EFDD4F80432184494F80032C4F8E2
:101C00000402B3B1002384F800320D4BD4F8F8215C
:101C10005B6A04F5FC71DA608A1A904228BF1046AC
:101C20009222C4F8080258601A601A6842F0010251
:101C30001A6003B0BDE8104003B07047C11B000834
:101C400070310008000000000000000000000000EB
:101C500038B5012380F800322C4C0023C0F8043240
:101C6000E269C0F8FC0142F00102C0F8F801E2614B
:101C7000274A284D106820F440201060106840F476
:101C800000201060908820F400700004000C908008
:101C9000908880B29080D06820F44020D060D068D6
:101CA000D060906820F440209060906840F400205C
:101CB0009060506A20F0F0005062506A40F070006E
:101CC0005062226A284642F480422262A4F580349F
:101CD0004FF40052A281104A9268B2FBF1F18AB22D
:101CE0002281072123820D4AFFF762FE2B680C4AEE
:101CF0009A6092221A600823A3818023A382A38979
:101D00009BB243F40053A38138BD00BF00380240AA
:101D10000000024094310008000C0020A11D0008C2
:101D20000438014000000000000000000000000036
:101D3000194A10B5536A0F24196821F00F01196070
:101D4000916A92F82C2004FA02F20A60D0F8F84165
:101D5000D0F80812D0F80422521A214400F5FC747D
:101D6000A14228BF0146C0F80422C0F8F8111AB9F0
:101D7000012380F8003210BDD960611A914238BF4A
:101D80000A46C0F808225A6092221A601A6842F085
:101D900001021A6010BD00BF703100080000000091
:101DA0000148FFF7C5BF00BF0C0C00200000000079
:101DB00010B52023044683F31188FFF741F86069CA
:101DC00018B100236361FFF763F9FFF751F80023AF
:101DD00083F3118810BD0000000000000000000027
:101DE000124B984205D103F56053DA6942F00102C3
:101DF00019E00F4B984205D103F55053DA6942F0D0
:101E0000020210E00B4B984205D103F54053DA690A
:101E100042F0040207E0084B984205D103F5305325
:101E2000DA6942F00802DA61704700BF0000024040
:101E30000004024000080240000C024000000000C4
:101E4000F8B50D46044616461F46FFF7C9FF690060
:101E5000032088402368C0430340236002238B4053
:101E60002268AE40134323600123AB40A288072DB4
:101E700092B222EA03039DF81820A38002FA01F12E
:101E8000A38888BF083D46EA0306B6B2A680E36889
:101E90004FEA850500EA0303E360E368E360A368B3
:101EA00000EA0300A060A36841EA030194BF002395
:101EB0000123A16004EB83040F23AB4007FA05F56F
:101EC000226A22EA03032362236A1D432562F8BDC6
:101ED00013B5B3F1804F04466360084611460AD13A
:101EE00003F50E335A6A42F001025A62022300934C
:101EF000002201232FE0484A934204D1474B5A6AFB
:101F000042F0020206E0464A934208D1434B5A6A25
:101F100042F004025A620223009300221BE0414A6D
:101F2000934204D13D4B1A6A42F004020EE03E4A4D
:101F3000934204D1394B1A6A42F0080206E03B4A48
:101F400093420AD1354B1A6A42F010021A620223F8
:101F5000009300220323FFF773FF6368B3F1804F00
:101F600006D02D4A934203D002F58062934201D1FC
:101F70002F4A00E02F4A226001221A8000229A8014
:101F8000BDF814209DF81010DA629DF81820013970
:101F9000002A0CBF06220722032937D8DFE801F008
:101FA000020F1C2903F13401A160198B89B241EAA7
:101FB00002121A831A8C92B242F0010225E003F158
:101FC0003801A160198B89B241EA02321A831A8C56
:101FD00092B242F0100218E003F13C01A160998B2B
:101FE00089B241EA02129A831A8C92B242F4807248
:101FF0000BE003F14001A160998B89B241EA023202
:102000009A831A8C92B242F480521A84A3680022F6
:102010001A6002B010BD00BF00040040003802404A
:102020000008004000080140000C01400010014081
:10203000040C0020080C002000000000000000003C
:102040004368DA6A514307D002681268B2FBF1F1C3
:1020500001B1013989B21985704700000000000004
:10206000013810F8013F2BB1034A11880906FBD54E
:102070009380F6E7704700BF003801400000000081
:1020800003681C4A70B593421B4B05469A6908D1F8
:1020900042F400129A6100229A615A6A22F40012F4
:1020A00007E042F480029A6100229A615A6A22F49F
:1020B00080026C682E895A622046FFF791FE7300F9
:1020C000032606FA03F322681A432260E26822EA32
:1020D0000303E3606C686D8920466D00AE40FFF736
:1020E0007FFE236833432360E36823EA0606E66045
:1020F00070BD00BF005400400038024000000000E6
:1021000073B5022600250189057400960446012254
:1021100040680423FFF794FE61890122042300969E
:102120006068FFF78DFE294A2368934202F5F23278
:10213000516A06D141F400115162916941F40011D4
:1021400005E041F480015162916941F4800191619F
:1021500095611F4A998850681E4A21F03F01B0FBE3
:10216000F2F20904012A4FEA114103D9212A28BFBA
:10217000202200E00222114389B29980198821F0BF
:1021800001010904090C19804FF496714A434FF478
:102190007A71B2FBF1F2013292B21A84E26819212B
:1021A0004A43B0FBF2F292B2002A08BF012242F485
:1021B00040429A831A8892B242F001021A809A88A9
:1021C00092B242F400629A8002B070BD00540040A6
:1021D000000C002040420F00000000000000000042
:1021E000F8B50381BDF8183004464381079B80E8A9
:1021F0000600C360089E104F099DFFF741FF20466F
:10220000FFF77EFF09213A462346A6613046FFF7D5
:10221000CFFBA36928461A6823680921103393600D
:102220003A462346E561FFF7C3FBE36922681B6872
:1022300010329A60F8BD00BFB11D00080000000018
:1022400038B504460525013D15F0FF0509D0236882
:10225000188B00F0020080B230B10120FFF7C8F9FE
:10226000F1E701232374022038BD000000000000C4
:1022700040F2C313013B09D00268918A128BC9074F
:1022800092B2F7D59207F5D000207047012303746E
:102290001846704700000000000000000000000029
:1022A00001682E238A8A013B92B203D002F4806037
:1022B00080B208B1012070479207F3D57047000043
:1022C0002E23013B05D00268928A1206F9D5002020
:1022D00070470123037402207047000000000000D3
:1022E00040F2C313013B05D00268928A5207F9D528
:1022F000002070470220704700000000000000002E
:102300002DE9F84304460F46914698469DF824600F
:10231000FFF796FF002874D12568A882AB8A5B0678
:1023200001D52B8AFAE7AB8A2B8B2B8820469BB2F0
:1023300043F480732B80FFF79BFF002861D1236853
:102340007F00FFB21F822046FFF7AAFF05462068E4
:102350002DB103889BB243F40073038051E0838A5C
:10236000038BB8F1000F2ED02046FFF7A9FF0028FD
:1023700047D1A36992221B68C3F80C901A60C3F876
:102380000480202383F31188FEF72AFD414B0220AD
:102390009B696361A3691B681A6842F001021A60B5
:1023A000FEF7BEFEFEF734FD002383F31188A36918
:1023B0001A68116821F00F0111605A681B7A0F2109
:1023C00001FA03F313602046002E58D0FFF778FF80
:1023D000B8B9236820461A8892B242F480721A80F3
:1023E000FFF746FF68B9236847F001071F822046C0
:1023F000FFF756FF23681A8828B192B242F40072A0
:102400001A80012543E0012E04D122F480621204D7
:10241000120C02E092B242F480621A809A8A1A8BFD
:10242000E26908991268D1608221116056609A8829
:1024300092B242F480529A80202383F31188FEF7EF
:10244000CFFC144B02209B696361E3691B681A6827
:1024500042F001021A60FEF763FEFEF7D9FC00238A
:1024600083F31188E3691A68116821F00F01116084
:102470005A681B7A0F2101FA03F3136001E0FFF79A
:102480002FFF23681A8892B242F400721A802846FD
:10249000BDE8F883AC12002000000000000000003E
:1024A0002DE9F8430446894690461F469DF824606E
:1024B000FFF7C6FE18BB2568A882AB8A5B0601D56C
:1024C0002B8AFAE7AB8A2B8B2B8820469BB243F4EE
:1024D00080732B80FFF7CCFE88B923684FEA490947
:1024E00009F0FE09A3F810902046FFF7D9FE2168F5
:1024F000054630B10B889BB243F400730B80012575
:102500006AE08B8A0B8B002F2DD02046FFF7D8FE78
:102510000028F4D1A36919689223C1F80C800B60DC
:102520004F60202383F31188FEF75AFC2C4B0220C6
:102530009B696361A3691B681A6842F001021A6013
:10254000FEF7EEFDFEF764FC002383F31188A36918
:102550001A68116821F00F0111605A681B7A0F2167
:1025600001FA03F31360002E2DD02046FFF7A8FEDA
:102570000028C4D1A369089A1B68DA6092221A6005
:102580005E60202383F31188FEF72AFC144B02209F
:102590009B696361A3691B681A6842F001021A60B3
:1025A000FEF7BEFDFEF734FC002383F31188A36918
:1025B0001A68116821F00F0111605A681B7A0F2107
:1025C00001FA03F313602046FFF78AFE23681A8896
:1025D00092B242F400721A802846BDE8F88300BF28
:1025E000AC1200200000000000000000000000000D
:1025F000F0B5644685B00025B0FBF1F301FB130292
:10260000092A05F1010594BF3032373201AED2B24A
:102610007719184607F8012C002BEDD12F462368B7
:102620009D420ED2227CE3680AB1302000E02020D7
:102630009847A368626801339342A3600FD20135C3
:10264000EDE7A3686568ED1AAF4238BF3D462B44FD
:10265000A36025B1013DE368705D9847F9E705B0D7
:10266000F0BD0000000000000000000000000000BD
:102670002DE9F0431C4687B0002304900291039398
:1026800001938DF814301078561C50B125280CD0C9
:10269000049B9847039B029A013393420393C0F033
:1026A0009580039807B0BDE8F0830022019211469F
:1026B00016F8013BA3F13000C5B2092D07D812B9B5
:1026C000302B08BF01210A2303FB0202F0E701922D
:1026D00003F0DF02532A8DF8141010D1251D246851
:1026E00014F8013B002B6BD0039B5A1C0392029AF7
:1026F000934265D214F8010C049B9847F0E7632BD2
:102700000BD1049B20789847039B029A0133934294
:1027100004F10405039353D3C3E7582B05D1251DBA
:102720000DF1040C2068102106E0752B07D12068FC
:10273000251D0DF1040C0A21FFF75AFF40E0642B20
:1027400011D1251D2468002C09DA049B2D209847FF
:10275000039B029A013393420393A2D264420DF188
:10276000040C2046E7E7412B29D101238DF81430D2
:102770000223D4F80090D4F8048004F10C05A76873
:102780000193002444451BDA002C0CDC0DF1040CF1
:1027900019F804001021FFF72BFF029B039A9A42BD
:1027A0000ED20134EEE7002FF0D0049BF8B2984728
:1027B000039B029A013393420393E7D300E025463B
:1027C000029B039A9A42BFF46CAF2C4632465AE7FA
:1027D0001FB50221162200238DE80E00183004498F
:1027E00003224FF08043FFF773FB05B05DF804FB55
:1027F0000004024000000000000000000000000093
:10280000C36870B505460C460BB1FEF779FF14B9E5
:102810002B6A1C6070BD05F118006188FFF710FC81
:102820002B6A22781A60A3791BB1022B04D16B6941
:1028300003E004F1080300E000232846A188024ACF
:10284000BDE87040FEF734BF5128000800000000CA
:1028500010B52023044683F31188FEF7F1FA0548EA
:102860002146FFF7CDFFFEF703FB002383F311881A
:1028700010BD00BF300E002000000000000000006E
:102880004D4AD36943F00203D3614C4B196821F0E0
:1028900003011960196841F002011960998821F05B
:1028A00001010904090C9980998889B29980D96835
:1028B00021F00301D960D968D960996821F003013A
:1028C0009960996841F002019960196A21F00F013D
:1028D0001962196A41F002011962D16941F00201DD
:1028E000D161196821F00C011960196841F00801E3
:1028F0001960998821F002010904090C99809988CE
:1029000089B29980D96821F00C01D960D968D96061
:10291000996821F00C019960996841F0080199606B
:10292000196A21F0F0011962196A41F02001196257
:10293000D16941F00201D161196821F44061196047
:10294000196841F400611960998821F02001090497
:10295000090C9980998889B29980D96821F44061DD
:10296000D960D968D960996821F440619960996803
:1029700041F400619960196A21F470011962196AC1
:1029800041F400111962536AFF2143F002035362BC
:102990000B4B01221A8000229A801A85D9624FF4CB
:1029A000C041198346F26001998341F210111984E4
:1029B0001A64DA639A6370470038024000040240E8
:1029C00000040040000000000000000000000000C3
:1029D000134BDA6942F00202DA61A3F550531A6828
:1029E00022F440521A601A6842F480521A609A889F
:1029F00022F040021204120C9A809A8892B29A80B5
:102A0000DA6822F44052DA60DA68DA609A6822F40E
:102A100040529A609A6842F440529A60704700BFF0
:102A2000003802400000000000000000000000002C
:102A3000C36870B505460C460BB1FEF761FE0E4B40
:102A400014B940225A8370BD2178402209B91A83F3
:102A500000E05A83E3781BB1022B03D16B6902E0DB
:102A6000231D00E000232846B4F80110034ABDE806
:102A70007040FEF71DBE00BF00040240812A00081E
:102A800010B52023044683F31188FEF7D9F90548D1
:102A90002146FFF7CDFFFEF7EBF9002383F3118802
:102AA00010BD00BF180E0020000000000000000054
:102AB00038B50D4C8023054663830120FEF798FD51
:102AC0000A4B05F10C00DA6942F00202DA61236870
:102AD00043F440432360E36823F44043E360BDE8EC
:102AE0003840FFF7CDBA00BF000402400038024072
:102AF00030B5002185B00546FEF7FAFB2846FFF702
:102B0000D7FF1F4B1F4CDA69012042F00202DA6145
:102B1000236823F440432360236843F48043236005
:102B2000A38823F080031B041B0CA380A3889BB203
:102B3000A380E36823F44043E360E368E360A368B1
:102B400023F44043A360A36843F44043A36080237D
:102B50002383FEF74DFD0C4B09228DE80C000B4B37
:102B600005F10C0002930C33039309492246082314
:102B7000FFF736FB284605B0BDE83040FEF710BC35
:102B80000038024000040240400D0300AC31000850
:102B900000540040000000000000000000000000A1
:102BA00010B50446FFF784FF184B0120DA6942F0A4
:102BB0000202DA61A3F550531A6822F440421A6007
:102BC0001A6842F480421A609A8822F08002120445
:102BD000120C9A809A8892B29A80DA6822F4404263
:102BE000DA60DA68DA609A6822F440429A609A6899
:102BF00042F440429A6080221A83FEF7F9FC04F105
:102C00000C00BDE81040FFF77BBA00BF003802405F
:102C100037B504460D46FEF7ABFB002229461346A6
:102C20000092019204F10C00FFF73AFC237F054665
:102C300013B12046FFF7B4FF2046FEF7B1FB28464C
:102C400003B030BD000000000000000000000000E4
:102C5000F0B51F4685B004460D461646FFB2FEF796
:102C600087FB04AA002302F8013D294601230096B0
:102C7000019704F10C00FFF743FB237F054613B1D6
:102C80002046FFF78DFF2046FEF78AFB284605B059
:102C9000F0BD000000000000000000000000000087
:102CA000F0B4840743D0541E002A3ED0CDB2034670
:102CB00003E0621E002C38D0144603F8015B9A072B
:102CC000F7D1032C2AD9CDB245EA05250F2C45EAC8
:102CD000054515D9A4F110073F0903F1100606EBCD
:102CE00007161A46156055609560D5601032B242DD
:102CF000F8D104F00F040137032C03EB07130DD9AF
:102D00001E462246043A032A46F8045BFAD8221FDC
:102D100022F003020432134404F003042CB1C9B2BC
:102D20001C4403F8011BA342FBD1F0BC70471446BE
:102D30000346C6E70000000000000000000000009D
:102D4000030406080C1018203000000000000000EA
:102D50000001020304060708090000000001020345
:102D6000040000000000000000000000000000005F
:102D70000100EA0AB400000001002D09B4000000BF
:102D80000100B707B40001000000000000000000CF
:102D90002325582C25410D0A0041707000000000C9
:102DA0000063000001B400000063000100000000A7
:102DB0000100B707360000000000000036000000E8
:102DC0000100B7073600010000000000000000000D
:102DD000436869626941726D6C6574204148423D87
:102DE00025753B20415042313D25753B20415042E5
:102DF000323D25750D0000000000000000000000BD
:102E000025640D00724C766C31000000000000005B
:102E10005356233100535623320053562333005365
:102E20005623340053562335005356233600535649
:102E30002337005356233800535623390053562363
:102E400031300053562331310000000000000000F3
:102E500022636845767452656769737465724D6163
:102E6000736B22282900226368457674556E72655B
:102E70006769737465722228290022636845767435
:102E80005369676E616C4922282900226368457680
:102E90007442726F6164636173744D61736B492234
:102EA0002829002263684576745369676E616C2235
:102EB00028290022636845767444697370617463DD
:102EC00068222829006368457674446973706174C8
:102ED000636828292C202331000000000000000036
:102EE0006D61696E00168011040434080C1014180A
:102EF0001C2021002224000000000000000000002F
:102F0000636853636852656164794928292C2023DA
:102F10003100737461636B206F766572666C6F77D6
:102F200000000000000000000000000000000000A1
:102F300022636853656D496E6974222829002263F3
:102F40006853656D5265736574492228290063686A
:102F500053656D52657365744928292C202331000F
:102F600022636853656D5761697453222829006391
:102F70006853656D576169745328292C20233100EB
:102F800022636853656D5761697454696D656F7527
:102F9000745322282900636853656D57616974541E
:102FA000696D656F75745328292C202331002263C5
:102FB0006853656D5369676E616C222829006368E8
:102FC00053656D5369676E616C28292C202331008D
:102FD00022636853656D5369676E616C49222829C5
:102FE00000636853656D5369676E616C4928292CCD
:102FF0002023310022636853656D416464436F751B
:103000006E7465724922282900636853656D4164B6
:1030100064436F756E7465724928292C2023310032
:1030200022636853656D5369676E616C576169749B
:1030300022282900636853656D5369676E616C5778
:1030400061697428292C20233100636853656D530E
:1030500069676E616C5761697428292C20233200DE
:1030600069646C65000000000000000000000000C2
:103070002263685468644372656174654922282933
:10308000002263685468645365745072696F726992
:103090007479222829006368546864526573756DD9
:1030A0006528292C20233100226368546864536CFE
:1030B00065657022282900636854686445786974DE
:1030C0005328292C202331002263685468645761F7
:1030D00069742228290063685468645761697428F8
:1030E000292C202331000000000000000000000017
:1030F0002263685654536574492228290022636864
:1031000056545265736574492228290063685654E1
:1031100052657365744928292C2023310000000072
:1031200022646D6153747265616D416C6C6F636193
:1031300074652228290022646D6153747265616D83
:1031400052656C6561736522282900646D61537452
:103150007265616D52656C6561736528292C202349
:10316000310000000000000000000000000000002E
:10317000086002400460024000000B001C60024036
:103180000460024004010C00306002400460024010
:1031900008020D0044600240046002400C030E006F
:1031A000586002400460024010040F006C6002404E
:1031B0000460024014051000806002400460024078
:0431C00018061100DC
:0400000508000D01E1
:00000001FF
